{
  "contractName": "APMRegistryFactory",
  "abi": [
    {
      "constant": false,
      "inputs": [
        {
          "name": "_root",
          "type": "address"
        }
      ],
      "name": "newDAO",
      "outputs": [
        {
          "name": "dao",
          "type": "address"
        }
      ],
      "payable": false,
      "stateMutability": "nonpayable",
      "type": "function"
    },
    {
      "constant": true,
      "inputs": [],
      "name": "registryBase",
      "outputs": [
        {
          "name": "",
          "type": "address"
        }
      ],
      "payable": false,
      "stateMutability": "view",
      "type": "function"
    },
    {
      "constant": true,
      "inputs": [],
      "name": "ensSubdomainRegistrarBase",
      "outputs": [
        {
          "name": "",
          "type": "address"
        }
      ],
      "payable": false,
      "stateMutability": "view",
      "type": "function"
    },
    {
      "constant": true,
      "inputs": [],
      "name": "ens",
      "outputs": [
        {
          "name": "",
          "type": "address"
        }
      ],
      "payable": false,
      "stateMutability": "view",
      "type": "function"
    },
    {
      "constant": true,
      "inputs": [],
      "name": "REPO_APP_ID",
      "outputs": [
        {
          "name": "",
          "type": "bytes32"
        }
      ],
      "payable": false,
      "stateMutability": "view",
      "type": "function"
    },
    {
      "constant": false,
      "inputs": [
        {
          "name": "tld",
          "type": "bytes32"
        },
        {
          "name": "label",
          "type": "bytes32"
        },
        {
          "name": "_root",
          "type": "address"
        }
      ],
      "name": "newAPM",
      "outputs": [
        {
          "name": "",
          "type": "address"
        }
      ],
      "payable": false,
      "stateMutability": "nonpayable",
      "type": "function"
    },
    {
      "constant": true,
      "inputs": [],
      "name": "ENS_SUB_APP_ID",
      "outputs": [
        {
          "name": "",
          "type": "bytes32"
        }
      ],
      "payable": false,
      "stateMutability": "view",
      "type": "function"
    },
    {
      "constant": true,
      "inputs": [],
      "name": "baseKernel",
      "outputs": [
        {
          "name": "",
          "type": "address"
        }
      ],
      "payable": false,
      "stateMutability": "view",
      "type": "function"
    },
    {
      "constant": true,
      "inputs": [],
      "name": "APM_APP_ID",
      "outputs": [
        {
          "name": "",
          "type": "bytes32"
        }
      ],
      "payable": false,
      "stateMutability": "view",
      "type": "function"
    },
    {
      "constant": true,
      "inputs": [],
      "name": "repoBase",
      "outputs": [
        {
          "name": "",
          "type": "address"
        }
      ],
      "payable": false,
      "stateMutability": "view",
      "type": "function"
    },
    {
      "inputs": [
        {
          "name": "_registryBase",
          "type": "address"
        },
        {
          "name": "_repoBase",
          "type": "address"
        },
        {
          "name": "_ensSubBase",
          "type": "address"
        },
        {
          "name": "_ens",
          "type": "address"
        },
        {
          "name": "_ensFactory",
          "type": "address"
        }
      ],
      "payable": false,
      "stateMutability": "nonpayable",
      "type": "constructor"
    },
    {
      "anonymous": false,
      "inputs": [
        {
          "indexed": true,
          "name": "node",
          "type": "bytes32"
        },
        {
          "indexed": false,
          "name": "apm",
          "type": "address"
        }
      ],
      "name": "DeployAPM",
      "type": "event"
    }
  ],
  "bytecode": "0x606060405234156200001057600080fd5b60405160a0806200371a833981016040528080519060200190919080519060200190919080519060200190919080519060200190919080519060200190919050506200005b620002bd565b604051809103906000f08015156200007257600080fd5b6000806101000a81548173ffffffffffffffffffffffffffffffffffffffff021916908373ffffffffffffffffffffffffffffffffffffffff16021790555084600160006101000a81548173ffffffffffffffffffffffffffffffffffffffff021916908373ffffffffffffffffffffffffffffffffffffffff16021790555083600260006101000a81548173ffffffffffffffffffffffffffffffffffffffff021916908373ffffffffffffffffffffffffffffffffffffffff16021790555082600360006101000a81548173ffffffffffffffffffffffffffffffffffffffff021916908373ffffffffffffffffffffffffffffffffffffffff160217905550600073ffffffffffffffffffffffffffffffffffffffff168273ffffffffffffffffffffffffffffffffffffffff16141562000270578073ffffffffffffffffffffffffffffffffffffffff1663e9358b01306000604051602001526040518263ffffffff167c0100000000000000000000000000000000000000000000000000000000028152600401808273ffffffffffffffffffffffffffffffffffffffff1673ffffffffffffffffffffffffffffffffffffffff168152602001915050602060405180830381600087803b15156200024e57600080fd5b6102c65a03f115156200026057600080fd5b5050506040518051905062000272565b815b600460006101000a81548173ffffffffffffffffffffffffffffffffffffffff021916908373ffffffffffffffffffffffffffffffffffffffff1602179055505050505050620002ce565b604051610e10806200290a83390190565b61262c80620002de6000396000f300606060405260043610620000af576000357c0100000000000000000000000000000000000000000000000000000000900463ffffffff1680632168744414620000b457806339ca6e8614620001305780633cfb35aa14620001885780633f15457f14620001e057806357fa71f51462000238578063aac57b3a146200026c578063b0f629441462000302578063b16dd1301462000336578063be9e5996146200038e578063caf1bb7c14620003c2575b600080fd5b3415620000c057600080fd5b620000ee600480803573ffffffffffffffffffffffffffffffffffffffff169060200190919050506200041a565b604051808273ffffffffffffffffffffffffffffffffffffffff1673ffffffffffffffffffffffffffffffffffffffff16815260200191505060405180910390f35b34156200013c57600080fd5b620001466200054c565b604051808273ffffffffffffffffffffffffffffffffffffffff1673ffffffffffffffffffffffffffffffffffffffff16815260200191505060405180910390f35b34156200019457600080fd5b6200019e62000572565b604051808273ffffffffffffffffffffffffffffffffffffffff1673ffffffffffffffffffffffffffffffffffffffff16815260200191505060405180910390f35b3415620001ec57600080fd5b620001f662000598565b604051808273ffffffffffffffffffffffffffffffffffffffff1673ffffffffffffffffffffffffffffffffffffffff16815260200191505060405180910390f35b34156200024457600080fd5b6200024e620005be565b60405180826000191660001916815260200191505060405180910390f35b34156200027857600080fd5b620002c06004808035600019169060200190919080356000191690602001909190803573ffffffffffffffffffffffffffffffffffffffff16906020019091905050620005f7565b604051808273ffffffffffffffffffffffffffffffffffffffff1673ffffffffffffffffffffffffffffffffffffffff16815260200191505060405180910390f35b34156200030e57600080fd5b6200031862001b60565b60405180826000191660001916815260200191505060405180910390f35b34156200034257600080fd5b6200034c62001b99565b604051808273ffffffffffffffffffffffffffffffffffffffff1673ffffffffffffffffffffffffffffffffffffffff16815260200191505060405180910390f35b34156200039a57600080fd5b620003a462001bbe565b60405180826000191660001916815260200191505060405180910390f35b3415620003ce57600080fd5b620003d862001bf7565b604051808273ffffffffffffffffffffffffffffffffffffffff1673ffffffffffffffffffffffffffffffffffffffff16815260200191505060405180910390f35b60008060009054906101000a900473ffffffffffffffffffffffffffffffffffffffff166200044862001ef0565b808273ffffffffffffffffffffffffffffffffffffffff1673ffffffffffffffffffffffffffffffffffffffff168152602001915050604051809103906000f08015156200049557600080fd5b90508073ffffffffffffffffffffffffffffffffffffffff1663c4d66de8836040518263ffffffff167c0100000000000000000000000000000000000000000000000000000000028152600401808273ffffffffffffffffffffffffffffffffffffffff1673ffffffffffffffffffffffffffffffffffffffff168152602001915050600060405180830381600087803b15156200053257600080fd5b6102c65a03f115156200054457600080fd5b505050919050565b600160009054906101000a900473ffffffffffffffffffffffffffffffffffffffff1681565b600360009054906101000a900473ffffffffffffffffffffffffffffffffffffffff1681565b600460009054906101000a900473ffffffffffffffffffffffffffffffffffffffff1681565b60405180807f7265706f2e617261676f6e000000000000000000000000000000000000000000815250600b019050604051809103902081565b60008060008060008787604051808360001916600019168152602001826000191660001916815260200192505050604051809103902093503073ffffffffffffffffffffffffffffffffffffffff16600460009054906101000a900473ffffffffffffffffffffffffffffffffffffffff1673ffffffffffffffffffffffffffffffffffffffff166302571be3866000604051602001526040518263ffffffff167c0100000000000000000000000000000000000000000000000000000000028152600401808260001916600019168152602001915050602060405180830381600087803b1515620006e857600080fd5b6102c65a03f11515620006fa57600080fd5b5050506040518051905073ffffffffffffffffffffffffffffffffffffffff161415156200081557600460009054906101000a900473ffffffffffffffffffffffffffffffffffffffff1673ffffffffffffffffffffffffffffffffffffffff166306ab59238989306040518463ffffffff167c010000000000000000000000000000000000000000000000000000000002815260040180846000191660001916815260200183600019166000191681526020018273ffffffffffffffffffffffffffffffffffffffff1673ffffffffffffffffffffffffffffffffffffffff1681526020019350505050600060405180830381600087803b1515620007ff57600080fd5b6102c65a03f115156200081157600080fd5b5050505b62000820306200041a565b92508273ffffffffffffffffffffffffffffffffffffffff1663be03847830858673ffffffffffffffffffffffffffffffffffffffff166384d497f16000604051602001526040518163ffffffff167c0100000000000000000000000000000000000000000000000000000000028152600401602060405180830381600087803b1515620008ad57600080fd5b6102c65a03f11515620008bf57600080fd5b50505060405180519050306040518563ffffffff167c0100000000000000000000000000000000000000000000000000000000028152600401808573ffffffffffffffffffffffffffffffffffffffff1673ffffffffffffffffffffffffffffffffffffffff1681526020018473ffffffffffffffffffffffffffffffffffffffff1673ffffffffffffffffffffffffffffffffffffffff16815260200183600019166000191681526020018273ffffffffffffffffffffffffffffffffffffffff1673ffffffffffffffffffffffffffffffffffffffff168152602001945050505050600060405180830381600087803b1515620009bd57600080fd5b6102c65a03f11515620009cf57600080fd5b5050508273ffffffffffffffffffffffffffffffffffffffff16635e4a8a2060405180807f61706d2e617261676f6e00000000000000000000000000000000000000000000815250600a0190506040518091039020600160009054906101000a900473ffffffffffffffffffffffffffffffffffffffff166040518363ffffffff167c01000000000000000000000000000000000000000000000000000000000281526004018083600019166000191681526020018273ffffffffffffffffffffffffffffffffffffffff1673ffffffffffffffffffffffffffffffffffffffff16815260200192505050600060405180830381600087803b151562000ad457600080fd5b6102c65a03f1151562000ae657600080fd5b5050508273ffffffffffffffffffffffffffffffffffffffff16635e4a8a2060405180807f7265706f2e617261676f6e000000000000000000000000000000000000000000815250600b0190506040518091039020600260009054906101000a900473ffffffffffffffffffffffffffffffffffffffff166040518363ffffffff167c01000000000000000000000000000000000000000000000000000000000281526004018083600019166000191681526020018273ffffffffffffffffffffffffffffffffffffffff1673ffffffffffffffffffffffffffffffffffffffff16815260200192505050600060405180830381600087803b151562000beb57600080fd5b6102c65a03f1151562000bfd57600080fd5b5050508273ffffffffffffffffffffffffffffffffffffffff16635e4a8a2060405180807f656e737375622e617261676f6e00000000000000000000000000000000000000815250600d0190506040518091039020600360009054906101000a900473ffffffffffffffffffffffffffffffffffffffff166040518363ffffffff167c01000000000000000000000000000000000000000000000000000000000281526004018083600019166000191681526020018273ffffffffffffffffffffffffffffffffffffffff1673ffffffffffffffffffffffffffffffffffffffff16815260200192505050600060405180830381600087803b151562000d0257600080fd5b6102c65a03f1151562000d1457600080fd5b50505062000d588360405180807f656e737375622e617261676f6e00000000000000000000000000000000000000815250600d019050604051809103902062001c1d565b915062000d9b8360405180807f61706d2e617261676f6e00000000000000000000000000000000000000000000815250600a019050604051809103902062001c1d565b90508273ffffffffffffffffffffffffffffffffffffffff1663be03847882848573ffffffffffffffffffffffffffffffffffffffff1663fef47e386000604051602001526040518163ffffffff167c0100000000000000000000000000000000000000000000000000000000028152600401602060405180830381600087803b151562000e2857600080fd5b6102c65a03f1151562000e3a57600080fd5b505050604051805190508a6040518563ffffffff167c0100000000000000000000000000000000000000000000000000000000028152600401808573ffffffffffffffffffffffffffffffffffffffff1673ffffffffffffffffffffffffffffffffffffffff1681526020018473ffffffffffffffffffffffffffffffffffffffff1673ffffffffffffffffffffffffffffffffffffffff16815260200183600019166000191681526020018273ffffffffffffffffffffffffffffffffffffffff1673ffffffffffffffffffffffffffffffffffffffff168152602001945050505050600060405180830381600087803b151562000f3857600080fd5b6102c65a03f1151562000f4a57600080fd5b5050508273ffffffffffffffffffffffffffffffffffffffff1663be03847882848573ffffffffffffffffffffffffffffffffffffffff1663307482cf6000604051602001526040518163ffffffff167c0100000000000000000000000000000000000000000000000000000000028152600401602060405180830381600087803b151562000fd857600080fd5b6102c65a03f1151562000fea57600080fd5b505050604051805190508a6040518563ffffffff167c0100000000000000000000000000000000000000000000000000000000028152600401808573ffffffffffffffffffffffffffffffffffffffff1673ffffffffffffffffffffffffffffffffffffffff1681526020018473ffffffffffffffffffffffffffffffffffffffff1673ffffffffffffffffffffffffffffffffffffffff16815260200183600019166000191681526020018273ffffffffffffffffffffffffffffffffffffffff1673ffffffffffffffffffffffffffffffffffffffff168152602001945050505050600060405180830381600087803b1515620010e857600080fd5b6102c65a03f11515620010fa57600080fd5b5050506200110a83828862001c58565b8273ffffffffffffffffffffffffffffffffffffffff16630a8ed3db82858673ffffffffffffffffffffffffffffffffffffffff16633d6ab68f6000604051602001526040518163ffffffff167c0100000000000000000000000000000000000000000000000000000000028152600401602060405180830381600087803b15156200119557600080fd5b6102c65a03f11515620011a757600080fd5b505050604051805190506040518463ffffffff167c0100000000000000000000000000000000000000000000000000000000028152600401808473ffffffffffffffffffffffffffffffffffffffff1673ffffffffffffffffffffffffffffffffffffffff1681526020018373ffffffffffffffffffffffffffffffffffffffff1673ffffffffffffffffffffffffffffffffffffffff16815260200182600019166000191681526020019350505050600060405180830381600087803b15156200127157600080fd5b6102c65a03f115156200128357600080fd5b5050508273ffffffffffffffffffffffffffffffffffffffff1663afd925df87858673ffffffffffffffffffffffffffffffffffffffff166384d497f16000604051602001526040518163ffffffff167c0100000000000000000000000000000000000000000000000000000000028152600401602060405180830381600087803b15156200131157600080fd5b6102c65a03f115156200132357600080fd5b505050604051805190506040518463ffffffff167c0100000000000000000000000000000000000000000000000000000000028152600401808473ffffffffffffffffffffffffffffffffffffffff1673ffffffffffffffffffffffffffffffffffffffff1681526020018373ffffffffffffffffffffffffffffffffffffffff1673ffffffffffffffffffffffffffffffffffffffff16815260200182600019166000191681526020019350505050600060405180830381600087803b1515620013ed57600080fd5b6102c65a03f11515620013ff57600080fd5b5050508273ffffffffffffffffffffffffffffffffffffffff16639d0effdb30858673ffffffffffffffffffffffffffffffffffffffff16633d6ab68f6000604051602001526040518163ffffffff167c0100000000000000000000000000000000000000000000000000000000028152600401602060405180830381600087803b15156200148d57600080fd5b6102c65a03f115156200149f57600080fd5b505050604051805190506040518463ffffffff167c0100000000000000000000000000000000000000000000000000000000028152600401808473ffffffffffffffffffffffffffffffffffffffff1673ffffffffffffffffffffffffffffffffffffffff1681526020018373ffffffffffffffffffffffffffffffffffffffff1673ffffffffffffffffffffffffffffffffffffffff16815260200182600019166000191681526020019350505050600060405180830381600087803b15156200156957600080fd5b6102c65a03f115156200157b57600080fd5b5050508273ffffffffffffffffffffffffffffffffffffffff16630a8ed3db87858673ffffffffffffffffffffffffffffffffffffffff16633d6ab68f6000604051602001526040518163ffffffff167c0100000000000000000000000000000000000000000000000000000000028152600401602060405180830381600087803b15156200160957600080fd5b6102c65a03f115156200161b57600080fd5b505050604051805190506040518463ffffffff167c0100000000000000000000000000000000000000000000000000000000028152600401808473ffffffffffffffffffffffffffffffffffffffff1673ffffffffffffffffffffffffffffffffffffffff1681526020018373ffffffffffffffffffffffffffffffffffffffff1673ffffffffffffffffffffffffffffffffffffffff16815260200182600019166000191681526020019350505050600060405180830381600087803b1515620016e557600080fd5b6102c65a03f11515620016f757600080fd5b5050508273ffffffffffffffffffffffffffffffffffffffff1663afd925df87858673ffffffffffffffffffffffffffffffffffffffff16633d6ab68f6000604051602001526040518163ffffffff167c0100000000000000000000000000000000000000000000000000000000028152600401602060405180830381600087803b15156200178557600080fd5b6102c65a03f115156200179757600080fd5b505050604051805190506040518463ffffffff167c0100000000000000000000000000000000000000000000000000000000028152600401808473ffffffffffffffffffffffffffffffffffffffff1673ffffffffffffffffffffffffffffffffffffffff1681526020018373ffffffffffffffffffffffffffffffffffffffff1673ffffffffffffffffffffffffffffffffffffffff16815260200182600019166000191681526020019350505050600060405180830381600087803b15156200186157600080fd5b6102c65a03f115156200187357600080fd5b505050600460009054906101000a900473ffffffffffffffffffffffffffffffffffffffff1673ffffffffffffffffffffffffffffffffffffffff16635b0fc9c385846040518363ffffffff167c01000000000000000000000000000000000000000000000000000000000281526004018083600019166000191681526020018273ffffffffffffffffffffffffffffffffffffffff1673ffffffffffffffffffffffffffffffffffffffff16815260200192505050600060405180830381600087803b15156200194357600080fd5b6102c65a03f115156200195557600080fd5b5050508173ffffffffffffffffffffffffffffffffffffffff1663be13f47c600460009054906101000a900473ffffffffffffffffffffffffffffffffffffffff16866040518363ffffffff167c0100000000000000000000000000000000000000000000000000000000028152600401808373ffffffffffffffffffffffffffffffffffffffff1673ffffffffffffffffffffffffffffffffffffffff168152602001826000191660001916815260200192505050600060405180830381600087803b151562001a2557600080fd5b6102c65a03f1151562001a3757600080fd5b5050508073ffffffffffffffffffffffffffffffffffffffff1663c4d66de8836040518263ffffffff167c0100000000000000000000000000000000000000000000000000000000028152600401808273ffffffffffffffffffffffffffffffffffffffff1673ffffffffffffffffffffffffffffffffffffffff168152602001915050600060405180830381600087803b151562001ad557600080fd5b6102c65a03f1151562001ae757600080fd5b50505083600019167f5dd941cb8701bb50205e5aef88c8532b8d6e75b7b65e2c458e9acdf261f0f29282604051808273ffffffffffffffffffffffffffffffffffffffff1673ffffffffffffffffffffffffffffffffffffffff16815260200191505060405180910390a2809450505050509392505050565b60405180807f656e737375622e617261676f6e00000000000000000000000000000000000000815250600d019050604051809103902081565b6000809054906101000a900473ffffffffffffffffffffffffffffffffffffffff1681565b60405180807f61706d2e617261676f6e00000000000000000000000000000000000000000000815250600a019050604051809103902081565b600260009054906101000a900473ffffffffffffffffffffffffffffffffffffffff1681565b600062001c508383600060405180591062001c355750595b9080825280601f01601f191660200182016040525062001e0d565b905092915050565b8273ffffffffffffffffffffffffffffffffffffffff1663be03847882848573ffffffffffffffffffffffffffffffffffffffff16635e1f3fa86000604051602001526040518163ffffffff167c0100000000000000000000000000000000000000000000000000000000028152600401602060405180830381600087803b151562001ce357600080fd5b6102c65a03f1151562001cf557600080fd5b50505060405180519050856040518563ffffffff167c0100000000000000000000000000000000000000000000000000000000028152600401808573ffffffffffffffffffffffffffffffffffffffff1673ffffffffffffffffffffffffffffffffffffffff1681526020018473ffffffffffffffffffffffffffffffffffffffff1673ffffffffffffffffffffffffffffffffffffffff16815260200183600019166000191681526020018273ffffffffffffffffffffffffffffffffffffffff1673ffffffffffffffffffffffffffffffffffffffff168152602001945050505050600060405180830381600087803b151562001df357600080fd5b6102c65a03f1151562001e0557600080fd5b505050505050565b600083838362001e1c62001f01565b808473ffffffffffffffffffffffffffffffffffffffff1673ffffffffffffffffffffffffffffffffffffffff168152602001836000191660001916815260200180602001828103825283818151815260200191508051906020019080838360005b8381101562001e9b57808201518184015260208101905062001e7e565b50505050905090810190601f16801562001ec95780820380516001836020036101000a031916815260200191505b50945050505050604051809103906000f080151562001ee757600080fd5b90509392505050565b6040516102138062001f1383390190565b6040516104db80620021268339019056006060604052341561000f57600080fd5b60405160208061021383398101604052808051906020019091905050806000806101000a81548173ffffffffffffffffffffffffffffffffffffffff021916908373ffffffffffffffffffffffffffffffffffffffff160217905550506101988061007b6000396000f300606060405260043610610041576000357c0100000000000000000000000000000000000000000000000000000000900463ffffffff168063d2920091146100a1575b61009f6000809054906101000a900473ffffffffffffffffffffffffffffffffffffffff166000368080601f0160208091040260200160405190810160405280939291908181526020018383808284378201915050505050506100f6565b005b34156100ac57600080fd5b6100b4610134565b604051808273ffffffffffffffffffffffffffffffffffffffff1673ffffffffffffffffffffffffffffffffffffffff16815260200191505060405180910390f35b6100ff82610159565b151561010a57600080fd5b600080825160208401856127105a03f43d604051816000823e8260008114610130578282f35b8282fd5b6000809054906101000a900473ffffffffffffffffffffffffffffffffffffffff1681565b600080823b9050600081119150509190505600a165627a7a723058207c560df709a92bd2b7f83352cbda89a238e855eeef8a8fff3f146737da5e4ade00296060604052341561000f57600080fd5b6040516104db3803806104db833981016040528080519060200190919080519060200190919080518201919050506000836000806101000a81548173ffffffffffffffffffffffffffffffffffffffff021916908373ffffffffffffffffffffffffffffffffffffffff160217905550826001816000191690555060008251111561020f576000809054906101000a900473ffffffffffffffffffffffffffffffffffffffff1673ffffffffffffffffffffffffffffffffffffffff1663186bbb056001546000604051602001526040518263ffffffff167c0100000000000000000000000000000000000000000000000000000000028152600401808260001916600019168152602001915050602060405180830381600087803b151561013657600080fd5b6102c65a03f1151561014757600080fd5b50505060405180519050905061016f8161021864010000000002610262176401000000009004565b151561017a57600080fd5b8073ffffffffffffffffffffffffffffffffffffffff168260405180828051906020019080838360005b838110156101bf5780820151818401526020810190506101a4565b50505050905090810190601f1680156101ec5780820380516001836020036101000a031916815260200191505b509150506000604051808303818561646e5a03f4915050151561020e57600080fd5b5b5050505061022b565b600080823b905060008111915050919050565b6102a18061023a6000396000f30060606040526004361061004c576000357c0100000000000000000000000000000000000000000000000000000000900463ffffffff16806380afdea814610173578063d4aae0c4146101a4575b60008060009054906101000a900473ffffffffffffffffffffffffffffffffffffffff1673ffffffffffffffffffffffffffffffffffffffff1663186bbb056001546000604051602001526040518263ffffffff167c0100000000000000000000000000000000000000000000000000000000028152600401808260001916600019168152602001915050602060405180830381600087803b15156100f057600080fd5b6102c65a03f1151561010157600080fd5b50505060405180519050905060008173ffffffffffffffffffffffffffffffffffffffff161415151561013357600080fd5b610170816000368080601f0160208091040260200160405190810160405280939291908181526020018383808284378201915050505050506101f9565b50005b341561017e57600080fd5b610186610237565b60405180826000191660001916815260200191505060405180910390f35b34156101af57600080fd5b6101b761023d565b604051808273ffffffffffffffffffffffffffffffffffffffff1673ffffffffffffffffffffffffffffffffffffffff16815260200191505060405180910390f35b61020282610262565b151561020d57600080fd5b600080825160208401856127105a03f43d604051816000823e8260008114610233578282f35b8282fd5b60015481565b6000809054906101000a900473ffffffffffffffffffffffffffffffffffffffff1681565b600080823b9050600081119150509190505600a165627a7a72305820ed5fd22db52b7df473f00cf352040f4ac6a56eaefe44ded1712b635d3002eb800029a165627a7a72305820d6e6c72f19e7bea7228d0d62bfeb2e3d8ca3e0851eaa07b42540098787216c9900296060604052341561000f57600080fd5b610df28061001e6000396000f3006060604052600436106100db576000357c0100000000000000000000000000000000000000000000000000000000900463ffffffff1680630a8ed3db146100e0578063186bbb05146101455780633d6ab68f146101ac5780635e4a8a20146101dd5780636a9cd450146102235780636d6712d81461025c57806384d497f1146102d95780638b3dd7491461030a5780639d0effdb14610333578063afd925df14610398578063b1905727146103fd578063be03847814610483578063c4d66de814610507578063ca5b813114610540578063d292009114610571575b600080fd5b34156100eb57600080fd5b610143600480803573ffffffffffffffffffffffffffffffffffffffff1690602001909190803573ffffffffffffffffffffffffffffffffffffffff16906020019091908035600019169060200190919050506105c6565b005b341561015057600080fd5b61016a600480803560001916906020019091905050610636565b604051808273ffffffffffffffffffffffffffffffffffffffff1673ffffffffffffffffffffffffffffffffffffffff16815260200191505060405180910390f35b34156101b757600080fd5b6101bf61067b565b60405180826000191660001916815260200191505060405180910390f35b34156101e857600080fd5b61022160048080356000191690602001909190803573ffffffffffffffffffffffffffffffffffffffff16906020019091905050610682565b005b341561022e57600080fd5b61025a600480803573ffffffffffffffffffffffffffffffffffffffff16906020019091905050610744565b005b341561026757600080fd5b6102bf600480803573ffffffffffffffffffffffffffffffffffffffff1690602001909190803573ffffffffffffffffffffffffffffffffffffffff16906020019091908035600019169060200190919050506107e6565b604051808215151515815260200191505060405180910390f35b34156102e457600080fd5b6102ec610894565b60405180826000191660001916815260200191505060405180910390f35b341561031557600080fd5b61031d61089c565b6040518082815260200191505060405180910390f35b341561033e57600080fd5b610396600480803573ffffffffffffffffffffffffffffffffffffffff1690602001909190803573ffffffffffffffffffffffffffffffffffffffff16906020019091908035600019169060200190919050506108a6565b005b34156103a357600080fd5b6103fb600480803573ffffffffffffffffffffffffffffffffffffffff1690602001909190803573ffffffffffffffffffffffffffffffffffffffff1690602001909190803560001916906020019091905050610915565b005b341561040857600080fd5b610441600480803573ffffffffffffffffffffffffffffffffffffffff169060200190919080356000191690602001909190505061096c565b604051808273ffffffffffffffffffffffffffffffffffffffff1673ffffffffffffffffffffffffffffffffffffffff16815260200191505060405180910390f35b341561048e57600080fd5b610505600480803573ffffffffffffffffffffffffffffffffffffffff1690602001909190803573ffffffffffffffffffffffffffffffffffffffff169060200190919080356000191690602001909190803573ffffffffffffffffffffffffffffffffffffffff169060200190919050506109ef565b005b341561051257600080fd5b61053e600480803573ffffffffffffffffffffffffffffffffffffffff16906020019091905050610a1c565b005b341561054b57600080fd5b610553610a47565b60405180826000191660001916815260200191505060405180910390f35b341561057c57600080fd5b610584610a4f565b604051808273ffffffffffffffffffffffffffffffffffffffff1673ffffffffffffffffffffffffffffffffffffffff16815260200191505060405180910390f35b81816105d2828261096c565b73ffffffffffffffffffffffffffffffffffffffff163373ffffffffffffffffffffffffffffffffffffffff1614151561060b57600080fd5b6106168585856107e6565b15151561062257600080fd5b61062f8585856001610a74565b5050505050565b600060046000836000191660001916815260200190815260200160002060009054906101000a900473ffffffffffffffffffffffffffffffffffffffff169050919050565b6001800281565b60026001026106923330836107e6565b151561069d57600080fd5b8160046000856000191660001916815260200190815260200160002060006101000a81548173ffffffffffffffffffffffffffffffffffffffff021916908373ffffffffffffffffffffffffffffffffffffffff1602179055508173ffffffffffffffffffffffffffffffffffffffff1683600019167f7536c7703d321558d15a6f344db59e1721430eeb9885a88b380f91b70bb0b4ee60405160405180910390a3505050565b60036001026107543330836107e6565b151561075f57600080fd5b816000806101000a81548173ffffffffffffffffffffffffffffffffffffffff021916908373ffffffffffffffffffffffffffffffffffffffff1602179055508173ffffffffffffffffffffffffffffffffffffffff167fbea42e79b2b57325eb886f0c3a902833b307facd4817bb1e4e3a58995aed804d60405160405180910390a25050565b6000600260008573ffffffffffffffffffffffffffffffffffffffff1673ffffffffffffffffffffffffffffffffffffffff16815260200190815260200160002060008473ffffffffffffffffffffffffffffffffffffffff1673ffffffffffffffffffffffffffffffffffffffff1681526020019081526020016000206000836000191660001916815260200190815260200160002060009054906101000a900460ff1690509392505050565b600260010281565b6000600154905090565b81816108b2828261096c565b73ffffffffffffffffffffffffffffffffffffffff163373ffffffffffffffffffffffffffffffffffffffff161415156108eb57600080fd5b6108f68585856107e6565b151561090157600080fd5b61090e8585856000610a74565b5050505050565b8181610921828261096c565b73ffffffffffffffffffffffffffffffffffffffff163373ffffffffffffffffffffffffffffffffffffffff1614151561095a57600080fd5b610965858585610b95565b5050505050565b6000600360008473ffffffffffffffffffffffffffffffffffffffff1673ffffffffffffffffffffffffffffffffffffffff1681526020019081526020016000206000836000191660001916815260200190815260200160002060009054906101000a900473ffffffffffffffffffffffffffffffffffffffff16905092915050565b600180026109fe3330836107e6565b1515610a0957600080fd5b610a1585858585610ccc565b5050505050565b6000600154141515610a2d57600080fd5b610a35610d9d565b610a4481306001800284610ccc565b50565b600360010281565b6000809054906101000a900473ffffffffffffffffffffffffffffffffffffffff1681565b80600260008673ffffffffffffffffffffffffffffffffffffffff1673ffffffffffffffffffffffffffffffffffffffff16815260200190815260200160002060008573ffffffffffffffffffffffffffffffffffffffff1673ffffffffffffffffffffffffffffffffffffffff1681526020019081526020016000206000846000191660001916815260200190815260200160002060006101000a81548160ff02191690831515021790555081600019168373ffffffffffffffffffffffffffffffffffffffff168573ffffffffffffffffffffffffffffffffffffffff167f759b9a74d5354b5801710a0c1b283cc9f0d32b607ac8ced10c83ac8e75c77d5284604051808215151515815260200191505060405180910390a450505050565b600073ffffffffffffffffffffffffffffffffffffffff168373ffffffffffffffffffffffffffffffffffffffff1614151515610bd157600080fd5b82600360008473ffffffffffffffffffffffffffffffffffffffff1673ffffffffffffffffffffffffffffffffffffffff1681526020019081526020016000206000836000191660001916815260200190815260200160002060006101000a81548173ffffffffffffffffffffffffffffffffffffffff021916908373ffffffffffffffffffffffffffffffffffffffff1602179055508273ffffffffffffffffffffffffffffffffffffffff1681600019168373ffffffffffffffffffffffffffffffffffffffff167ff3addc8b8e25ee11528a61b0e65092cae0666ef0ec0c64cb303993c88d689b4d60405160405180910390a4505050565b600073ffffffffffffffffffffffffffffffffffffffff16600360008573ffffffffffffffffffffffffffffffffffffffff1673ffffffffffffffffffffffffffffffffffffffff1681526020019081526020016000206000846000191660001916815260200190815260200160002060009054906101000a900473ffffffffffffffffffffffffffffffffffffffff1673ffffffffffffffffffffffffffffffffffffffff16141515610d7f57600080fd5b610d8c8484846001610a74565b610d97818484610b95565b50505050565b6000600154141515610dae57600080fd5b610db6610dbe565b600181905550565b6000439050905600a165627a7a723058204e6aa953c39b20ce221a96b140d2576a9c1c9188ebdd0e423637ab0e33755e9d0029",
  "source": "pragma solidity 0.4.18;\n\n\nimport \"../apm/APMRegistry.sol\";\nimport \"../ens/ENSSubdomainRegistrar.sol\";\nimport \"../apps/AppProxyFactory.sol\";\n\nimport \"./DAOFactory.sol\";\nimport \"./ENSFactory.sol\";\n\n\ncontract APMRegistryFactory is DAOFactory, APMRegistryConstants, AppProxyFactory {\n    APMRegistry public registryBase;\n    Repo public repoBase;\n    ENSSubdomainRegistrar public ensSubdomainRegistrarBase;\n    ENS public ens;\n\n    event DeployAPM(bytes32 indexed node, address apm);\n\n    // Needs either one ENS or ENSFactory\n    function APMRegistryFactory(\n        APMRegistry _registryBase,\n        Repo _repoBase,\n        ENSSubdomainRegistrar _ensSubBase,\n        ENS _ens,\n        ENSFactory _ensFactory\n    ) public\n    {\n        registryBase = _registryBase;\n        repoBase = _repoBase;\n        ensSubdomainRegistrarBase = _ensSubBase;\n\n        // Either the ENS address provided is used, if any.\n        // Or we use the ENSFactory to generate a test instance of ENS\n        // If not the ENS address nor factory address are provided, this will revert\n        ens = _ens != address(0) ? _ens : _ensFactory.newENS(this);\n    }\n\n    function newAPM(bytes32 tld, bytes32 label, address _root) public returns (APMRegistry) {\n        bytes32 node = keccak256(tld, label);\n\n        // Assume it is the test ENS\n        if (ens.owner(node) != address(this)) {\n            // If we weren't in test ens and factory doesn't have ownership, will fail\n            ens.setSubnodeOwner(tld, label, this);\n        }\n\n        Kernel dao = newDAO(this);\n\n        dao.createPermission(this, dao, dao.UPGRADE_APPS_ROLE(), this);\n\n        // App code for relevant apps\n        dao.setAppCode(APM_APP_ID, registryBase);\n        dao.setAppCode(REPO_APP_ID, repoBase);\n        dao.setAppCode(ENS_SUB_APP_ID, ensSubdomainRegistrarBase);\n\n        // Deploy proxies\n        ENSSubdomainRegistrar ensSub = ENSSubdomainRegistrar(newAppProxy(dao, ENS_SUB_APP_ID));\n        APMRegistry apm = APMRegistry(newAppProxy(dao, APM_APP_ID));\n\n        // Grant permissions needed for APM on ENSSubdomainRegistrar\n        dao.createPermission(apm, ensSub, ensSub.CREATE_NAME_ROLE(), _root);\n        dao.createPermission(apm, ensSub, ensSub.POINT_ROOTNODE_ROLE(), _root);\n\n        configureAPMPermissions(dao, apm, _root);\n\n        // allow apm to create permissions for Repos in Kernel\n        dao.grantPermission(apm, dao, dao.CREATE_PERMISSIONS_ROLE());\n\n        // Permission transition to _root\n        dao.setPermissionManager(_root, dao, dao.UPGRADE_APPS_ROLE());\n        dao.revokePermission(this, dao, dao.CREATE_PERMISSIONS_ROLE());\n        dao.grantPermission(_root, dao, dao.CREATE_PERMISSIONS_ROLE());\n        dao.setPermissionManager(_root, dao, dao.CREATE_PERMISSIONS_ROLE());\n\n        // Initialize\n        ens.setOwner(node, ensSub);\n        ensSub.initialize(ens, node);\n        apm.initialize(ensSub);\n\n        DeployAPM(node, apm);\n\n        return apm;\n    }\n\n    // Factory can be subclassed and permissions changed\n    function configureAPMPermissions(Kernel dao, APMRegistry apm, address root) internal {\n        dao.createPermission(root, apm, apm.CREATE_REPO_ROLE(), root);\n    }\n}\n",
  "sourcePath": "/Users/onbjerg/Workspace/aragon/aragonos/contracts/factory/APMRegistryFactory.sol",
  "compiler": {
    "name": "solc",
    "version": "0.4.18+commit.9cf6e910.Emscripten.clang"
  },
  "schemaVersion": "1.0.1",
  "updatedAt": "2018-01-17T16:29:36.958Z"
}