{
  "contractName": "APMRegistry",
  "abi": [
    {
      "constant": true,
      "inputs": [],
      "name": "registrar",
      "outputs": [
        {
          "name": "",
          "type": "address"
        }
      ],
      "payable": false,
      "stateMutability": "view",
      "type": "function"
    },
    {
      "constant": false,
      "inputs": [
        {
          "name": "_name",
          "type": "string"
        },
        {
          "name": "_dev",
          "type": "address"
        },
        {
          "name": "_initialSemanticVersion",
          "type": "uint16[3]"
        },
        {
          "name": "_contractAddress",
          "type": "address"
        },
        {
          "name": "_contentURI",
          "type": "bytes"
        }
      ],
      "name": "newRepoWithVersion",
      "outputs": [
        {
          "name": "",
          "type": "address"
        }
      ],
      "payable": false,
      "stateMutability": "nonpayable",
      "type": "function"
    },
    {
      "constant": true,
      "inputs": [],
      "name": "REPO_APP_ID",
      "outputs": [
        {
          "name": "",
          "type": "bytes32"
        }
      ],
      "payable": false,
      "stateMutability": "view",
      "type": "function"
    },
    {
      "constant": true,
      "inputs": [],
      "name": "CREATE_REPO_ROLE",
      "outputs": [
        {
          "name": "",
          "type": "bytes32"
        }
      ],
      "payable": false,
      "stateMutability": "view",
      "type": "function"
    },
    {
      "constant": true,
      "inputs": [],
      "name": "appId",
      "outputs": [
        {
          "name": "",
          "type": "bytes32"
        }
      ],
      "payable": false,
      "stateMutability": "view",
      "type": "function"
    },
    {
      "constant": true,
      "inputs": [],
      "name": "getInitializationBlock",
      "outputs": [
        {
          "name": "",
          "type": "uint256"
        }
      ],
      "payable": false,
      "stateMutability": "view",
      "type": "function"
    },
    {
      "constant": false,
      "inputs": [
        {
          "name": "_name",
          "type": "string"
        },
        {
          "name": "_dev",
          "type": "address"
        }
      ],
      "name": "newRepo",
      "outputs": [
        {
          "name": "",
          "type": "address"
        }
      ],
      "payable": false,
      "stateMutability": "nonpayable",
      "type": "function"
    },
    {
      "constant": true,
      "inputs": [],
      "name": "ENS_SUB_APP_ID",
      "outputs": [
        {
          "name": "",
          "type": "bytes32"
        }
      ],
      "payable": false,
      "stateMutability": "view",
      "type": "function"
    },
    {
      "constant": true,
      "inputs": [
        {
          "name": "_sender",
          "type": "address"
        },
        {
          "name": "_role",
          "type": "bytes32"
        }
      ],
      "name": "canPerform",
      "outputs": [
        {
          "name": "",
          "type": "bool"
        }
      ],
      "payable": false,
      "stateMutability": "view",
      "type": "function"
    },
    {
      "constant": true,
      "inputs": [],
      "name": "APM_APP_ID",
      "outputs": [
        {
          "name": "",
          "type": "bytes32"
        }
      ],
      "payable": false,
      "stateMutability": "view",
      "type": "function"
    },
    {
      "constant": false,
      "inputs": [
        {
          "name": "_registrar",
          "type": "address"
        }
      ],
      "name": "initialize",
      "outputs": [],
      "payable": false,
      "stateMutability": "nonpayable",
      "type": "function"
    },
    {
      "constant": true,
      "inputs": [],
      "name": "kernel",
      "outputs": [
        {
          "name": "",
          "type": "address"
        }
      ],
      "payable": false,
      "stateMutability": "view",
      "type": "function"
    },
    {
      "anonymous": false,
      "inputs": [
        {
          "indexed": false,
          "name": "id",
          "type": "bytes32"
        },
        {
          "indexed": false,
          "name": "name",
          "type": "string"
        },
        {
          "indexed": false,
          "name": "repo",
          "type": "address"
        }
      ],
      "name": "NewRepo",
      "type": "event"
    },
    {
      "anonymous": false,
      "inputs": [
        {
          "indexed": false,
          "name": "name",
          "type": "string"
        },
        {
          "indexed": false,
          "name": "dev",
          "type": "address"
        }
      ],
      "name": "Debug",
      "type": "event"
    }
  ],
  "bytecode": "0x6060604052341561000f57600080fd5b611e438061001e6000396000f300606060405260043610620000c7576000357c0100000000000000000000000000000000000000000000000000000000900463ffffffff1680632b20e39714620000cc57806332ab6af0146200012457806357fa71f514620002715780635e1f3fa814620002a557806380afdea814620002d95780638b3dd749146200030d578063b0927de71462000339578063b0f6294414620003f8578063b3ce5a14146200042c578063be9e5996146200048d578063c4d66de814620004c1578063d4aae0c414620004fd575b600080fd5b3415620000d857600080fd5b620000e262000555565b604051808273ffffffffffffffffffffffffffffffffffffffff1673ffffffffffffffffffffffffffffffffffffffff16815260200191505060405180910390f35b34156200013057600080fd5b6200022f600480803590602001908201803590602001908080601f0160208091040260200160405190810160405280939291908181526020018383808284378201915050505050509190803573ffffffffffffffffffffffffffffffffffffffff16906020019091908060600190600380602002604051908101604052809291908260036020028082843782019150505050509190803573ffffffffffffffffffffffffffffffffffffffff1690602001909190803590602001908201803590602001908080601f016020809104026020016040519081016040528093929190818152602001838380828437820191505050505050919050506200057b565b604051808273ffffffffffffffffffffffffffffffffffffffff1673ffffffffffffffffffffffffffffffffffffffff16815260200191505060405180910390f35b34156200027d57600080fd5b6200028762000a42565b60405180826000191660001916815260200191505060405180910390f35b3415620002b157600080fd5b620002bb62000a7b565b60405180826000191660001916815260200191505060405180910390f35b3415620002e557600080fd5b620002ef62000a82565b60405180826000191660001916815260200191505060405180910390f35b34156200031957600080fd5b6200032362000a88565b6040518082815260200191505060405180910390f35b34156200034557600080fd5b620003b6600480803590602001908201803590602001908080601f0160208091040260200160405190810160405280939291908181526020018383808284378201915050505050509190803573ffffffffffffffffffffffffffffffffffffffff1690602001909190505062000a92565b604051808273ffffffffffffffffffffffffffffffffffffffff1673ffffffffffffffffffffffffffffffffffffffff16815260200191505060405180910390f35b34156200040457600080fd5b6200040e62000ac5565b60405180826000191660001916815260200191505060405180910390f35b34156200043857600080fd5b62000473600480803573ffffffffffffffffffffffffffffffffffffffff169060200190919080356000191690602001909190505062000afe565b604051808215151515815260200191505060405180910390f35b34156200049957600080fd5b620004a362000c6f565b60405180826000191660001916815260200191505060405180910390f35b3415620004cd57600080fd5b620004fb600480803573ffffffffffffffffffffffffffffffffffffffff1690602001909190505062000ca8565b005b34156200050957600080fd5b620005136200131b565b604051808273ffffffffffffffffffffffffffffffffffffffff1673ffffffffffffffffffffffffffffffffffffffff16815260200191505060405180910390f35b600460009054906101000a900473ffffffffffffffffffffffffffffffffffffffff1681565b600080600180026200058e338262000afe565b15156200059a57600080fd5b620005a6883062001340565b91508173ffffffffffffffffffffffffffffffffffffffff1663730534108787876040518463ffffffff167c01000000000000000000000000000000000000000000000000000000000281526004018084600360200280838360005b838110156200061f57808201518184015260208101905062000602565b505050509050018373ffffffffffffffffffffffffffffffffffffffff1673ffffffffffffffffffffffffffffffffffffffff16815260200180602001828103825283818151815260200191508051906020019080838360005b838110156200069657808201518184015260208101905062000679565b50505050905090810190601f168015620006c45780820380516001836020036101000a031916815260200191505b50945050505050600060405180830381600087803b1515620006e557600080fd5b6102c65a03f11515620006f757600080fd5b5050506000809054906101000a900473ffffffffffffffffffffffffffffffffffffffff1673ffffffffffffffffffffffffffffffffffffffff16639d0effdb30848573ffffffffffffffffffffffffffffffffffffffff1663aa61924a6000604051602001526040518163ffffffff167c0100000000000000000000000000000000000000000000000000000000028152600401602060405180830381600087803b1515620007a657600080fd5b6102c65a03f11515620007b857600080fd5b505050604051805190506040518463ffffffff167c0100000000000000000000000000000000000000000000000000000000028152600401808473ffffffffffffffffffffffffffffffffffffffff1673ffffffffffffffffffffffffffffffffffffffff1681526020018373ffffffffffffffffffffffffffffffffffffffff1673ffffffffffffffffffffffffffffffffffffffff16815260200182600019166000191681526020019350505050600060405180830381600087803b15156200088257600080fd5b6102c65a03f115156200089457600080fd5b5050506000809054906101000a900473ffffffffffffffffffffffffffffffffffffffff1673ffffffffffffffffffffffffffffffffffffffff1663afd925df88848573ffffffffffffffffffffffffffffffffffffffff1663aa61924a6000604051602001526040518163ffffffff167c0100000000000000000000000000000000000000000000000000000000028152600401602060405180830381600087803b15156200094357600080fd5b6102c65a03f115156200095557600080fd5b505050604051805190506040518463ffffffff167c0100000000000000000000000000000000000000000000000000000000028152600401808473ffffffffffffffffffffffffffffffffffffffff1673ffffffffffffffffffffffffffffffffffffffff1681526020018373ffffffffffffffffffffffffffffffffffffffff1673ffffffffffffffffffffffffffffffffffffffff16815260200182600019166000191681526020019350505050600060405180830381600087803b151562000a1f57600080fd5b6102c65a03f1151562000a3157600080fd5b505050819250505095945050505050565b60405180807f7265706f2e617261676f6e000000000000000000000000000000000000000000815250600b019050604051809103902081565b6001800281565b60015481565b6000600254905090565b60006001800262000aa4338262000afe565b151562000ab057600080fd5b62000abc848462001340565b91505092915050565b60405180807f656e737375622e617261676f6e00000000000000000000000000000000000000815250600d019050604051809103902081565b6000806000809054906101000a900473ffffffffffffffffffffffffffffffffffffffff1673ffffffffffffffffffffffffffffffffffffffff16148062000c6757506000809054906101000a900473ffffffffffffffffffffffffffffffffffffffff1673ffffffffffffffffffffffffffffffffffffffff16636d6712d88430856000604051602001526040518463ffffffff167c0100000000000000000000000000000000000000000000000000000000028152600401808473ffffffffffffffffffffffffffffffffffffffff1673ffffffffffffffffffffffffffffffffffffffff1681526020018373ffffffffffffffffffffffffffffffffffffffff1673ffffffffffffffffffffffffffffffffffffffff16815260200182600019166000191681526020019350505050602060405180830381600087803b151562000c4a57600080fd5b6102c65a03f1151562000c5c57600080fd5b505050604051805190505b905092915050565b60405180807f61706d2e617261676f6e00000000000000000000000000000000000000000000815250600a019050604051809103902081565b600060025414151562000cba57600080fd5b62000cc462001778565b80600460006101000a81548173ffffffffffffffffffffffffffffffffffffffff021916908373ffffffffffffffffffffffffffffffffffffffff160217905550600460009054906101000a900473ffffffffffffffffffffffffffffffffffffffff1673ffffffffffffffffffffffffffffffffffffffff16633f15457f6000604051602001526040518163ffffffff167c0100000000000000000000000000000000000000000000000000000000028152600401602060405180830381600087803b151562000d9457600080fd5b6102c65a03f1151562000da657600080fd5b50505060405180519050600360006101000a81548173ffffffffffffffffffffffffffffffffffffffff021916908373ffffffffffffffffffffffffffffffffffffffff160217905550600460009054906101000a900473ffffffffffffffffffffffffffffffffffffffff1673ffffffffffffffffffffffffffffffffffffffff1663db606931306040518263ffffffff167c0100000000000000000000000000000000000000000000000000000000028152600401808273ffffffffffffffffffffffffffffffffffffffff1673ffffffffffffffffffffffffffffffffffffffff168152602001915050600060405180830381600087803b151562000ead57600080fd5b6102c65a03f1151562000ebf57600080fd5b505050600073ffffffffffffffffffffffffffffffffffffffff166000809054906101000a900473ffffffffffffffffffffffffffffffffffffffff1673ffffffffffffffffffffffffffffffffffffffff161415151562000f2057600080fd5b6000809054906101000a900473ffffffffffffffffffffffffffffffffffffffff1673ffffffffffffffffffffffffffffffffffffffff16636d6712d830600460009054906101000a900473ffffffffffffffffffffffffffffffffffffffff16600460009054906101000a900473ffffffffffffffffffffffffffffffffffffffff1673ffffffffffffffffffffffffffffffffffffffff1663fef47e386000604051602001526040518163ffffffff167c0100000000000000000000000000000000000000000000000000000000028152600401602060405180830381600087803b15156200101057600080fd5b6102c65a03f115156200102257600080fd5b505050604051805190506000604051602001526040518463ffffffff167c0100000000000000000000000000000000000000000000000000000000028152600401808473ffffffffffffffffffffffffffffffffffffffff1673ffffffffffffffffffffffffffffffffffffffff1681526020018373ffffffffffffffffffffffffffffffffffffffff1673ffffffffffffffffffffffffffffffffffffffff16815260200182600019166000191681526020019350505050602060405180830381600087803b1515620010f557600080fd5b6102c65a03f115156200110757600080fd5b5050506040518051905015156200111d57600080fd5b6000809054906101000a900473ffffffffffffffffffffffffffffffffffffffff1673ffffffffffffffffffffffffffffffffffffffff16636d6712d8306000809054906101000a900473ffffffffffffffffffffffffffffffffffffffff166000809054906101000a900473ffffffffffffffffffffffffffffffffffffffff1673ffffffffffffffffffffffffffffffffffffffff16633d6ab68f6000604051602001526040518163ffffffff167c0100000000000000000000000000000000000000000000000000000000028152600401602060405180830381600087803b15156200120b57600080fd5b6102c65a03f115156200121d57600080fd5b505050604051805190506000604051602001526040518463ffffffff167c0100000000000000000000000000000000000000000000000000000000028152600401808473ffffffffffffffffffffffffffffffffffffffff1673ffffffffffffffffffffffffffffffffffffffff1681526020018373ffffffffffffffffffffffffffffffffffffffff1673ffffffffffffffffffffffffffffffffffffffff16815260200182600019166000191681526020019350505050602060405180830381600087803b1515620012f057600080fd5b6102c65a03f115156200130257600080fd5b5050506040518051905015156200131857600080fd5b50565b6000809054906101000a900473ffffffffffffffffffffffffffffffffffffffff1681565b60008060008085511115156200135557600080fd5b6200135f6200179c565b91506000809054906101000a900473ffffffffffffffffffffffffffffffffffffffff1673ffffffffffffffffffffffffffffffffffffffff1663be03847885848573ffffffffffffffffffffffffffffffffffffffff1663aa61924a6000604051602001526040518163ffffffff167c0100000000000000000000000000000000000000000000000000000000028152600401602060405180830381600087803b15156200140d57600080fd5b6102c65a03f115156200141f57600080fd5b50505060405180519050886040518563ffffffff167c0100000000000000000000000000000000000000000000000000000000028152600401808573ffffffffffffffffffffffffffffffffffffffff1673ffffffffffffffffffffffffffffffffffffffff1681526020018473ffffffffffffffffffffffffffffffffffffffff1673ffffffffffffffffffffffffffffffffffffffff16815260200183600019166000191681526020018273ffffffffffffffffffffffffffffffffffffffff1673ffffffffffffffffffffffffffffffffffffffff168152602001945050505050600060405180830381600087803b15156200151d57600080fd5b6102c65a03f115156200152f57600080fd5b505050600460009054906101000a900473ffffffffffffffffffffffffffffffffffffffff1673ffffffffffffffffffffffffffffffffffffffff166365b0bc85866040518082805190602001908083835b602083101515620015a8578051825260208201915060208101905060208303925062001581565b6001836020036101000a0380198251168184511680821785525050505050509050019150506040518091039020846000604051602001526040518363ffffffff167c01000000000000000000000000000000000000000000000000000000000281526004018083600019166000191681526020018273ffffffffffffffffffffffffffffffffffffffff1673ffffffffffffffffffffffffffffffffffffffff16815260200192505050602060405180830381600087803b15156200166c57600080fd5b6102c65a03f115156200167e57600080fd5b5050506040518051905090507f526d4ccf8c3d7b6f0b6d4cc0de526d515c87d1ea3bd264ace0b5c2e70d1b2208818684604051808460001916600019168152602001806020018373ffffffffffffffffffffffffffffffffffffffff1673ffffffffffffffffffffffffffffffffffffffff168152602001828103825284818151815260200191508051906020019080838360005b838110156200173057808201518184015260208101905062001713565b50505050905090810190601f1680156200175e5780820380516001836020036101000a031916815260200191505b5094505050505060405180910390a1819250505092915050565b60006002541415156200178a57600080fd5b6200179462001805565b600281905550565b6000620018006000809054906101000a900473ffffffffffffffffffffffffffffffffffffffff1660405180807f7265706f2e617261676f6e000000000000000000000000000000000000000000815250600b01905060405180910390206200180d565b905090565b600043905090565b60006200184083836000604051805910620018255750595b9080825280601f01601f191660200182016040525062001848565b905092915050565b6000838383620018576200192b565b808473ffffffffffffffffffffffffffffffffffffffff1673ffffffffffffffffffffffffffffffffffffffff168152602001836000191660001916815260200180602001828103825283818151815260200191508051906020019080838360005b83811015620018d6578082015181840152602081019050620018b9565b50505050905090810190601f168015620019045780820380516001836020036101000a031916815260200191505b50945050505050604051809103906000f08015156200192257600080fd5b90509392505050565b6040516104db806200193d8339019056006060604052341561000f57600080fd5b6040516104db3803806104db833981016040528080519060200190919080519060200190919080518201919050506000836000806101000a81548173ffffffffffffffffffffffffffffffffffffffff021916908373ffffffffffffffffffffffffffffffffffffffff160217905550826001816000191690555060008251111561020f576000809054906101000a900473ffffffffffffffffffffffffffffffffffffffff1673ffffffffffffffffffffffffffffffffffffffff1663186bbb056001546000604051602001526040518263ffffffff167c0100000000000000000000000000000000000000000000000000000000028152600401808260001916600019168152602001915050602060405180830381600087803b151561013657600080fd5b6102c65a03f1151561014757600080fd5b50505060405180519050905061016f8161021864010000000002610262176401000000009004565b151561017a57600080fd5b8073ffffffffffffffffffffffffffffffffffffffff168260405180828051906020019080838360005b838110156101bf5780820151818401526020810190506101a4565b50505050905090810190601f1680156101ec5780820380516001836020036101000a031916815260200191505b509150506000604051808303818561646e5a03f4915050151561020e57600080fd5b5b5050505061022b565b600080823b905060008111915050919050565b6102a18061023a6000396000f30060606040526004361061004c576000357c0100000000000000000000000000000000000000000000000000000000900463ffffffff16806380afdea814610173578063d4aae0c4146101a4575b60008060009054906101000a900473ffffffffffffffffffffffffffffffffffffffff1673ffffffffffffffffffffffffffffffffffffffff1663186bbb056001546000604051602001526040518263ffffffff167c0100000000000000000000000000000000000000000000000000000000028152600401808260001916600019168152602001915050602060405180830381600087803b15156100f057600080fd5b6102c65a03f1151561010157600080fd5b50505060405180519050905060008173ffffffffffffffffffffffffffffffffffffffff161415151561013357600080fd5b610170816000368080601f0160208091040260200160405190810160405280939291908181526020018383808284378201915050505050506101f9565b50005b341561017e57600080fd5b610186610237565b60405180826000191660001916815260200191505060405180910390f35b34156101af57600080fd5b6101b761023d565b604051808273ffffffffffffffffffffffffffffffffffffffff1673ffffffffffffffffffffffffffffffffffffffff16815260200191505060405180910390f35b61020282610262565b151561020d57600080fd5b600080825160208401856127105a03f43d604051816000823e8260008114610233578282f35b8282fd5b60015481565b6000809054906101000a900473ffffffffffffffffffffffffffffffffffffffff1681565b600080823b9050600081119150509190505600a165627a7a72305820ed5fd22db52b7df473f00cf352040f4ac6a56eaefe44ded1712b635d3002eb800029a165627a7a72305820509f2af45c5750ce792e97387e6e2deea543499f9877cba641c9e503e2cf3afc0029",
  "source": "pragma solidity 0.4.18;\n\nimport \"../kernel/Kernel.sol\";\nimport \"../lib/ens/AbstractENS.sol\";\nimport \"../ens/ENSSubdomainRegistrar.sol\";\nimport \"../apps/AppProxyFactory.sol\";\nimport \"../apps/AragonApp.sol\";\nimport \"./Repo.sol\";\n\n\ncontract APMRegistryConstants {\n    // Cant have a regular APM appId because it is used to build APM\n    bytes32 constant public APM_APP_ID = keccak256(\"apm.aragon\");\n    bytes32 constant public REPO_APP_ID = keccak256(\"repo.aragon\");\n    bytes32 constant public ENS_SUB_APP_ID = keccak256(\"enssub.aragon\");\n}\n\n\ncontract APMRegistry is AragonApp, AppProxyFactory, APMRegistryConstants {\n    AbstractENS ens;\n    ENSSubdomainRegistrar public registrar;\n\n    bytes32 constant public CREATE_REPO_ROLE = bytes32(1);\n\n    event NewRepo(bytes32 id, string name, address repo);\n\n    /**\n    * NEEDS CREATE_NAME_ROLE and POINT_ROOTNODE_ROLE permissions on registrar\n    * @param _registrar ENSSubdomainRegistrar instance that holds registry root node ownership\n    */\n    function initialize(ENSSubdomainRegistrar _registrar) onlyInit public {\n        initialized();\n\n        registrar = _registrar;\n        ens = registrar.ens();\n\n        registrar.pointRootNode(this);\n\n        // Check APM has all permissions it needss\n        require(kernel != address(0));\n        require(kernel.hasPermission(address(this), registrar, registrar.CREATE_NAME_ROLE()));\n        require(kernel.hasPermission(address(this), kernel, Kernel(kernel).CREATE_PERMISSIONS_ROLE()));\n    }\n\n    /**\n    * @notice Create new repo in registry with `_name`\n    * @param _name Repo name, must be ununsed\n    * @param _dev Address that will be given permission to create versions\n    */\n    function newRepo(string _name, address _dev) auth(CREATE_REPO_ROLE) public returns (Repo) {\n        return _newRepo(_name, _dev);\n    }\n\n    /**\n    * @notice Create new repo in registry with `_name` and first repo version\n    * @param _name Repo name\n    * @param _dev Address that will be given permission to create versions\n    * @param _initialSemanticVersion Semantic version for new repo version\n    * @param _contractAddress address for smart contract logic for version (if set to 0, it uses last versions' contractAddress)\n    * @param _contentURI External URI for fetching new version's content\n    */\n    function newRepoWithVersion(\n        string _name,\n        address _dev,\n        uint16[3] _initialSemanticVersion,\n        address _contractAddress,\n        bytes _contentURI\n    ) auth(CREATE_REPO_ROLE) public returns (Repo)\n    {\n        Repo repo = _newRepo(_name, this); // need to have permissions to create version\n        repo.newVersion(_initialSemanticVersion, _contractAddress, _contentURI);\n\n        // Give permissions to _dev\n        kernel.revokePermission(this, repo, repo.CREATE_VERSION_ROLE());\n        kernel.setPermissionManager(_dev, repo, repo.CREATE_VERSION_ROLE());\n        return repo;\n    }\n\n    event Debug(string name, address dev);\n\n    function _newRepo(string _name, address _dev) internal returns (Repo) {\n        require(bytes(_name).length > 0);\n\n        Repo repo = newClonedRepo();\n\n        kernel.createPermission(_dev, repo, repo.CREATE_VERSION_ROLE(), _dev);\n\n        // Creates [name] subdomain in the rootNode and sets registry as resolver\n        // This will fail if repo name already exists\n        bytes32 node = registrar.createNameAndPoint(keccak256(_name), repo);\n\n        NewRepo(node, _name, repo);\n\n        return repo;\n    }\n\n    function newClonedRepo() internal returns (Repo) {\n        return Repo(newAppProxy(kernel, REPO_APP_ID));\n    }\n}\n",
  "sourcePath": "/Users/onbjerg/Workspace/aragon/aragonos/contracts/apm/APMRegistry.sol",
  "compiler": {
    "name": "solc",
    "version": "0.4.18+commit.9cf6e910.Emscripten.clang"
  },
  "schemaVersion": "1.0.1",
  "updatedAt": "2018-01-18T18:35:45.971Z"
}