{
  "contractName": "AppProxy",
  "abi": [
    {
      "constant": true,
      "inputs": [],
      "name": "appId",
      "outputs": [
        {
          "name": "",
          "type": "bytes32"
        }
      ],
      "payable": false,
      "stateMutability": "view",
      "type": "function"
    },
    {
      "constant": true,
      "inputs": [],
      "name": "kernel",
      "outputs": [
        {
          "name": "",
          "type": "address"
        }
      ],
      "payable": false,
      "stateMutability": "view",
      "type": "function"
    },
    {
      "inputs": [
        {
          "name": "_kernel",
          "type": "address"
        },
        {
          "name": "_appId",
          "type": "bytes32"
        },
        {
          "name": "_initializePayload",
          "type": "bytes"
        }
      ],
      "payable": false,
      "stateMutability": "nonpayable",
      "type": "constructor"
    },
    {
      "payable": true,
      "stateMutability": "payable",
      "type": "fallback"
    }
  ],
  "bytecode": "0x6060604052341561000f57600080fd5b6040516104db3803806104db833981016040528080519060200190919080519060200190919080518201919050506000836000806101000a81548173ffffffffffffffffffffffffffffffffffffffff021916908373ffffffffffffffffffffffffffffffffffffffff160217905550826001816000191690555060008251111561020f576000809054906101000a900473ffffffffffffffffffffffffffffffffffffffff1673ffffffffffffffffffffffffffffffffffffffff1663186bbb056001546000604051602001526040518263ffffffff167c0100000000000000000000000000000000000000000000000000000000028152600401808260001916600019168152602001915050602060405180830381600087803b151561013657600080fd5b6102c65a03f1151561014757600080fd5b50505060405180519050905061016f8161021864010000000002610262176401000000009004565b151561017a57600080fd5b8073ffffffffffffffffffffffffffffffffffffffff168260405180828051906020019080838360005b838110156101bf5780820151818401526020810190506101a4565b50505050905090810190601f1680156101ec5780820380516001836020036101000a031916815260200191505b509150506000604051808303818561646e5a03f4915050151561020e57600080fd5b5b5050505061022b565b600080823b905060008111915050919050565b6102a18061023a6000396000f30060606040526004361061004c576000357c0100000000000000000000000000000000000000000000000000000000900463ffffffff16806380afdea814610173578063d4aae0c4146101a4575b60008060009054906101000a900473ffffffffffffffffffffffffffffffffffffffff1673ffffffffffffffffffffffffffffffffffffffff1663186bbb056001546000604051602001526040518263ffffffff167c0100000000000000000000000000000000000000000000000000000000028152600401808260001916600019168152602001915050602060405180830381600087803b15156100f057600080fd5b6102c65a03f1151561010157600080fd5b50505060405180519050905060008173ffffffffffffffffffffffffffffffffffffffff161415151561013357600080fd5b610170816000368080601f0160208091040260200160405190810160405280939291908181526020018383808284378201915050505050506101f9565b50005b341561017e57600080fd5b610186610237565b60405180826000191660001916815260200191505060405180910390f35b34156101af57600080fd5b6101b761023d565b604051808273ffffffffffffffffffffffffffffffffffffffff1673ffffffffffffffffffffffffffffffffffffffff16815260200191505060405180910390f35b61020282610262565b151561020d57600080fd5b600080825160208401856127105a03f43d604051816000823e8260008114610233578282f35b8282fd5b60015481565b6000809054906101000a900473ffffffffffffffffffffffffffffffffffffffff1681565b600080823b9050600081119150509190505600a165627a7a72305820ed5fd22db52b7df473f00cf352040f4ac6a56eaefe44ded1712b635d3002eb800029",
  "source": "pragma solidity 0.4.18;\n\nimport \"./AppStorage.sol\";\nimport \"../common/DelegateProxy.sol\";\n\n\ncontract AppProxy is AppStorage, DelegateProxy {\n    /**\n    * @dev Initialize AppProxy\n    * @param _kernel Reference to organization kernel for the app\n    * @param _appId Identifier for app\n    * @param _initializePayload Payload for call to be made after setup to initialize\n    */\n    function AppProxy(IKernel _kernel, bytes32 _appId, bytes _initializePayload) public {\n        kernel = _kernel;\n        appId = _appId;\n\n        // If initialize payload is provided, it will be executed\n        if (_initializePayload.length > 0) {\n            address appCode = kernel.getAppCode(appId);\n            require(isContract(appCode));\n            // Cannot make delegatecall as a delegateproxy.delegatedFwd as it\n            // returns ending execution context and halts contract deployment\n            require(appCode.delegatecall(_initializePayload));\n        }\n    }\n\n    function () payable public {\n        address target = kernel.getAppCode(appId);\n        require(target != 0); // if app code hasn't been set yet, don't call\n        delegatedFwd(target, msg.data);\n    }\n}\n",
  "sourcePath": "/Users/onbjerg/Workspace/aragon/aragonos/contracts/apps/AppProxy.sol",
  "compiler": {
    "name": "solc",
    "version": "0.4.18+commit.9cf6e910.Emscripten.clang"
  },
  "schemaVersion": "1.0.1",
  "updatedAt": "2018-01-17T16:29:36.952Z"
}