{
  "contractName": "CounterFwd",
  "abi": [
    {
      "constant": true,
      "inputs": [],
      "name": "ADMIN",
      "outputs": [
        {
          "name": "",
          "type": "bytes32"
        }
      ],
      "payable": false,
      "stateMutability": "view",
      "type": "function"
    },
    {
      "constant": false,
      "inputs": [],
      "name": "decrement",
      "outputs": [],
      "payable": false,
      "stateMutability": "nonpayable",
      "type": "function"
    },
    {
      "constant": true,
      "inputs": [],
      "name": "threshold",
      "outputs": [
        {
          "name": "",
          "type": "uint256"
        }
      ],
      "payable": false,
      "stateMutability": "view",
      "type": "function"
    },
    {
      "constant": true,
      "inputs": [],
      "name": "appId",
      "outputs": [
        {
          "name": "",
          "type": "bytes32"
        }
      ],
      "payable": false,
      "stateMutability": "view",
      "type": "function"
    },
    {
      "constant": true,
      "inputs": [],
      "name": "ctr",
      "outputs": [
        {
          "name": "",
          "type": "uint256"
        }
      ],
      "payable": false,
      "stateMutability": "view",
      "type": "function"
    },
    {
      "constant": true,
      "inputs": [],
      "name": "getInitializationBlock",
      "outputs": [
        {
          "name": "",
          "type": "uint256"
        }
      ],
      "payable": false,
      "stateMutability": "view",
      "type": "function"
    },
    {
      "constant": false,
      "inputs": [
        {
          "name": "x",
          "type": "uint256"
        }
      ],
      "name": "setThreshold",
      "outputs": [],
      "payable": false,
      "stateMutability": "nonpayable",
      "type": "function"
    },
    {
      "constant": true,
      "inputs": [
        {
          "name": "_sender",
          "type": "address"
        },
        {
          "name": "_role",
          "type": "bytes32"
        }
      ],
      "name": "canPerform",
      "outputs": [
        {
          "name": "",
          "type": "bool"
        }
      ],
      "payable": false,
      "stateMutability": "view",
      "type": "function"
    },
    {
      "constant": true,
      "inputs": [
        {
          "name": "_sender",
          "type": "address"
        },
        {
          "name": "_evmCallScript",
          "type": "bytes"
        }
      ],
      "name": "canForward",
      "outputs": [
        {
          "name": "",
          "type": "bool"
        }
      ],
      "payable": false,
      "stateMutability": "view",
      "type": "function"
    },
    {
      "constant": false,
      "inputs": [],
      "name": "increment",
      "outputs": [],
      "payable": false,
      "stateMutability": "nonpayable",
      "type": "function"
    },
    {
      "constant": true,
      "inputs": [],
      "name": "kernel",
      "outputs": [
        {
          "name": "",
          "type": "address"
        }
      ],
      "payable": false,
      "stateMutability": "view",
      "type": "function"
    },
    {
      "constant": false,
      "inputs": [
        {
          "name": "_evmCallScript",
          "type": "bytes"
        }
      ],
      "name": "forward",
      "outputs": [],
      "payable": false,
      "stateMutability": "nonpayable",
      "type": "function"
    },
    {
      "constant": true,
      "inputs": [],
      "name": "isForwarder",
      "outputs": [
        {
          "name": "",
          "type": "bool"
        }
      ],
      "payable": false,
      "stateMutability": "pure",
      "type": "function"
    },
    {
      "anonymous": false,
      "inputs": [
        {
          "indexed": true,
          "name": "sender",
          "type": "address"
        },
        {
          "indexed": true,
          "name": "src",
          "type": "address"
        },
        {
          "indexed": true,
          "name": "dst",
          "type": "address"
        }
      ],
      "name": "LogScriptCall",
      "type": "event"
    }
  ],
  "bytecode": "0x606060405260006003556001600455341561001957600080fd5b610829806100286000396000f3006060604052600436106100c5576000357c0100000000000000000000000000000000000000000000000000000000900463ffffffff1680632a0acc6a146100ca5780632baeceb7146100fb57806342cde4e81461011057806380afdea81461013957806387e9e77f1461016a5780638b3dd74914610193578063960bfe04146101bc578063b3ce5a14146101df578063c0774df31461023d578063d09de08a146102d1578063d4aae0c4146102e6578063d948d4681461033b578063fd64eccb14610398575b600080fd5b34156100d557600080fd5b6100dd6103c5565b60405180826000191660001916815260200191505060405180910390f35b341561010657600080fd5b61010e6103cc565b005b341561011b57600080fd5b61012361040c565b6040518082815260200191505060405180910390f35b341561014457600080fd5b61014c610412565b60405180826000191660001916815260200191505060405180910390f35b341561017557600080fd5b61017d610418565b6040518082815260200191505060405180910390f35b341561019e57600080fd5b6101a661041e565b6040518082815260200191505060405180910390f35b34156101c757600080fd5b6101dd6004808035906020019091905050610428565b005b34156101ea57600080fd5b610223600480803573ffffffffffffffffffffffffffffffffffffffff169060200190919080356000191690602001909190505061044c565b604051808215151515815260200191505060405180910390f35b341561024857600080fd5b6102b7600480803573ffffffffffffffffffffffffffffffffffffffff1690602001909190803590602001908201803590602001908080601f016020809104026020016040519081016040528093929190818152602001838380828437820191505050505050919050506105ba565b604051808215151515815260200191505060405180910390f35b34156102dc57600080fd5b6102e46105cc565b005b34156102f157600080fd5b6102f96105fa565b604051808273ffffffffffffffffffffffffffffffffffffffff1673ffffffffffffffffffffffffffffffffffffffff16815260200191505060405180910390f35b341561034657600080fd5b610396600480803590602001908201803590602001908080601f0160208091040260200160405190810160405280939291908181526020018383808284378201915050505050509190505061061f565b005b34156103a357600080fd5b6103ab610640565b604051808215151515815260200191505060405180910390f35b6001800281565b600180026103da338261044c565b15156103e557600080fd5b60006003541115156103f657600080fd5b6003600081548092919060019003919050555050565b60045481565b60015481565b60035481565b6000600254905090565b60018002610436338261044c565b151561044157600080fd5b816004819055505050565b6000806000809054906101000a900473ffffffffffffffffffffffffffffffffffffffff1673ffffffffffffffffffffffffffffffffffffffff1614806105b257506000809054906101000a900473ffffffffffffffffffffffffffffffffffffffff1673ffffffffffffffffffffffffffffffffffffffff16636d6712d88430856000604051602001526040518463ffffffff167c0100000000000000000000000000000000000000000000000000000000028152600401808473ffffffffffffffffffffffffffffffffffffffff1673ffffffffffffffffffffffffffffffffffffffff1681526020018373ffffffffffffffffffffffffffffffffffffffff1673ffffffffffffffffffffffffffffffffffffffff16815260200182600019166000191681526020019350505050602060405180830381600087803b151561059657600080fd5b6102c65a03f115156105a757600080fd5b505050604051805190505b905092915050565b60006004546003541015905092915050565b600180026105da338261044c565b15156105e557600080fd5b60036000815480929190600101919050555050565b6000809054906101000a900473ffffffffffffffffffffffffffffffffffffffff1681565b61062933826105ba565b151561063457600080fd5b61063d81610649565b50565b60006001905090565b60008060008060008094505b8551851015610730576106688686610738565b93506106778660148701610782565b63ffffffff16925061068f86600460148801016107dc565b91508373ffffffffffffffffffffffffffffffffffffffff163073ffffffffffffffffffffffffffffffffffffffff163373ffffffffffffffffffffffffffffffffffffffff167f9dcff9d94fbfdb4622d11edb383005f95e78efb446c72d92f8e615c6025c470360405160405180910390a460008084846000886113885a03f1905060008160ff16141561072357600080fd5b8260180185019450610655565b505050505050565b60008061074584846107ec565b90506c010000000000000000000000007fffffffffffffffffffffffffffffffffffffffff00000000000000000000000082160491505092915050565b60008061078f84846107ec565b90507c01000000000000000000000000000000000000000000000000000000007fffffffff0000000000000000000000000000000000000000000000000000000082160491505092915050565b6000816020018301905092915050565b6000816020018301519050929150505600a165627a7a723058203c7fc42f10a761cc0d6db820ef2d308378df471d22139be1fcb734ee9c64b1cb0029",
  "source": "pragma solidity ^0.4.18;\n\nimport \"./AragonApp.sol\";\nimport \"../common/IForwarder.sol\";\nimport \"../common/EVMCallScript.sol\";\n\ncontract CounterFwd is AragonApp, IForwarder, EVMCallScriptRunner {\n    bytes32 constant public ADMIN = bytes32(1);\n\n    uint public ctr = 0;\n    uint public threshold = 1;\n\n    // Setters\n    function increment() auth(ADMIN) { ctr++; }\n    function decrement() auth(ADMIN) { require(ctr > 0); ctr--; }\n    function setThreshold(uint256 x) auth(ADMIN) { threshold = x; }\n\n    function isForwarder() public pure returns (bool) {\n        return true;\n    }\n\n    /**\n    * @dev Forwarder will forward iff counter is at least threshold\n    *      Useful for testing logic around forwarders that can be toggled\n    */\n    function canForward(address _sender, bytes _evmCallScript) public constant returns (bool) {\n        return ctr >= threshold;\n    }\n\n    function forward(bytes _evmCallScript) public {\n        require(canForward(msg.sender, _evmCallScript));\n        runScript(_evmCallScript);\n    }\n}",
  "sourcePath": "/Users/onbjerg/Workspace/aragon/aragonos/contracts/apps/CounterFwd.sol",
  "compiler": {
    "name": "solc",
    "version": "0.4.18+commit.9cf6e910.Emscripten.clang"
  },
  "schemaVersion": "1.0.1",
  "updatedAt": "2018-01-18T22:57:15.604Z"
}