{
  "contractName": "ENSSubdomainRegistrar",
  "abi": [
    {
      "constant": true,
      "inputs": [],
      "name": "POINT_ROOTNODE_ROLE",
      "outputs": [
        {
          "name": "",
          "type": "bytes32"
        }
      ],
      "payable": false,
      "stateMutability": "view",
      "type": "function"
    },
    {
      "constant": true,
      "inputs": [],
      "name": "ens",
      "outputs": [
        {
          "name": "",
          "type": "address"
        }
      ],
      "payable": false,
      "stateMutability": "view",
      "type": "function"
    },
    {
      "constant": true,
      "inputs": [],
      "name": "PUBLIC_RESOLVER_NODE",
      "outputs": [
        {
          "name": "",
          "type": "bytes32"
        }
      ],
      "payable": false,
      "stateMutability": "view",
      "type": "function"
    },
    {
      "constant": false,
      "inputs": [
        {
          "name": "_label",
          "type": "bytes32"
        },
        {
          "name": "_target",
          "type": "address"
        }
      ],
      "name": "createNameAndPoint",
      "outputs": [
        {
          "name": "node",
          "type": "bytes32"
        }
      ],
      "payable": false,
      "stateMutability": "nonpayable",
      "type": "function"
    },
    {
      "constant": false,
      "inputs": [
        {
          "name": "_label",
          "type": "bytes32"
        },
        {
          "name": "_owner",
          "type": "address"
        }
      ],
      "name": "createName",
      "outputs": [
        {
          "name": "node",
          "type": "bytes32"
        }
      ],
      "payable": false,
      "stateMutability": "nonpayable",
      "type": "function"
    },
    {
      "constant": true,
      "inputs": [],
      "name": "appId",
      "outputs": [
        {
          "name": "",
          "type": "bytes32"
        }
      ],
      "payable": false,
      "stateMutability": "view",
      "type": "function"
    },
    {
      "constant": true,
      "inputs": [],
      "name": "getInitializationBlock",
      "outputs": [
        {
          "name": "",
          "type": "uint256"
        }
      ],
      "payable": false,
      "stateMutability": "view",
      "type": "function"
    },
    {
      "constant": true,
      "inputs": [],
      "name": "ETH_TLD_LABEL",
      "outputs": [
        {
          "name": "",
          "type": "bytes32"
        }
      ],
      "payable": false,
      "stateMutability": "view",
      "type": "function"
    },
    {
      "constant": true,
      "inputs": [],
      "name": "ENS_ROOT",
      "outputs": [
        {
          "name": "",
          "type": "bytes32"
        }
      ],
      "payable": false,
      "stateMutability": "view",
      "type": "function"
    },
    {
      "constant": true,
      "inputs": [
        {
          "name": "_sender",
          "type": "address"
        },
        {
          "name": "_role",
          "type": "bytes32"
        }
      ],
      "name": "canPerform",
      "outputs": [
        {
          "name": "",
          "type": "bool"
        }
      ],
      "payable": false,
      "stateMutability": "view",
      "type": "function"
    },
    {
      "constant": true,
      "inputs": [],
      "name": "DELETE_NAME_ROLE",
      "outputs": [
        {
          "name": "",
          "type": "bytes32"
        }
      ],
      "payable": false,
      "stateMutability": "view",
      "type": "function"
    },
    {
      "constant": false,
      "inputs": [
        {
          "name": "_ens",
          "type": "address"
        },
        {
          "name": "_rootNode",
          "type": "bytes32"
        }
      ],
      "name": "initialize",
      "outputs": [],
      "payable": false,
      "stateMutability": "nonpayable",
      "type": "function"
    },
    {
      "constant": true,
      "inputs": [],
      "name": "PUBLIC_RESOLVER_LABEL",
      "outputs": [
        {
          "name": "",
          "type": "bytes32"
        }
      ],
      "payable": false,
      "stateMutability": "view",
      "type": "function"
    },
    {
      "constant": true,
      "inputs": [],
      "name": "kernel",
      "outputs": [
        {
          "name": "",
          "type": "address"
        }
      ],
      "payable": false,
      "stateMutability": "view",
      "type": "function"
    },
    {
      "constant": false,
      "inputs": [
        {
          "name": "_target",
          "type": "address"
        }
      ],
      "name": "pointRootNode",
      "outputs": [],
      "payable": false,
      "stateMutability": "nonpayable",
      "type": "function"
    },
    {
      "constant": false,
      "inputs": [
        {
          "name": "_label",
          "type": "bytes32"
        }
      ],
      "name": "deleteName",
      "outputs": [],
      "payable": false,
      "stateMutability": "nonpayable",
      "type": "function"
    },
    {
      "constant": true,
      "inputs": [],
      "name": "rootNode",
      "outputs": [
        {
          "name": "",
          "type": "bytes32"
        }
      ],
      "payable": false,
      "stateMutability": "view",
      "type": "function"
    },
    {
      "constant": true,
      "inputs": [],
      "name": "ETH_TLD_NODE",
      "outputs": [
        {
          "name": "",
          "type": "bytes32"
        }
      ],
      "payable": false,
      "stateMutability": "view",
      "type": "function"
    },
    {
      "constant": true,
      "inputs": [],
      "name": "CREATE_NAME_ROLE",
      "outputs": [
        {
          "name": "",
          "type": "bytes32"
        }
      ],
      "payable": false,
      "stateMutability": "view",
      "type": "function"
    },
    {
      "anonymous": false,
      "inputs": [
        {
          "indexed": true,
          "name": "node",
          "type": "bytes32"
        },
        {
          "indexed": true,
          "name": "label",
          "type": "bytes32"
        }
      ],
      "name": "NewName",
      "type": "event"
    },
    {
      "anonymous": false,
      "inputs": [
        {
          "indexed": true,
          "name": "node",
          "type": "bytes32"
        },
        {
          "indexed": true,
          "name": "label",
          "type": "bytes32"
        }
      ],
      "name": "DeleteName",
      "type": "event"
    }
  ],
  "bytecode": "0x6060604052341561000f57600080fd5b6115ea8061001e6000396000f300606060405260043610610107576000357c0100000000000000000000000000000000000000000000000000000000900463ffffffff168063307482cf1461010c5780633f15457f1461013d5780633f82e2c61461019257806365b0bc85146101c35780636b62cb1b1461022557806380afdea8146102875780638b3dd749146102b85780639b227a97146102e1578063a9bf1c9f14610312578063b3ce5a1414610343578063bdbf7d4c146103a1578063be13f47c146103d2578063c84b1ce714610418578063d4aae0c414610449578063db6069311461049e578063dc371e54146104d7578063faff50a8146104fe578063fdee38a91461052f578063fef47e3814610560575b600080fd5b341561011757600080fd5b61011f610591565b60405180826000191660001916815260200191505060405180910390f35b341561014857600080fd5b610150610599565b604051808273ffffffffffffffffffffffffffffffffffffffff1673ffffffffffffffffffffffffffffffffffffffff16815260200191505060405180910390f35b341561019d57600080fd5b6101a56105bf565b60405180826000191660001916815260200191505060405180910390f35b34156101ce57600080fd5b61020760048080356000191690602001909190803573ffffffffffffffffffffffffffffffffffffffff1690602001909190505061068b565b60405180826000191660001916815260200191505060405180910390f35b341561023057600080fd5b61026960048080356000191690602001909190803573ffffffffffffffffffffffffffffffffffffffff169060200190919050506106c3565b60405180826000191660001916815260200191505060405180910390f35b341561029257600080fd5b61029a6106f1565b60405180826000191660001916815260200191505060405180910390f35b34156102c357600080fd5b6102cb6106f7565b6040518082815260200191505060405180910390f35b34156102ec57600080fd5b6102f4610701565b60405180826000191660001916815260200191505060405180910390f35b341561031d57600080fd5b61032561073a565b60405180826000191660001916815260200191505060405180910390f35b341561034e57600080fd5b610387600480803573ffffffffffffffffffffffffffffffffffffffff1690602001909190803560001916906020019091905050610742565b604051808215151515815260200191505060405180910390f35b34156103ac57600080fd5b6103b46108b0565b60405180826000191660001916815260200191505060405180910390f35b34156103dd57600080fd5b610416600480803573ffffffffffffffffffffffffffffffffffffffff16906020019091908035600019169060200190919050506108b8565b005b341561042357600080fd5b61042b6109f4565b60405180826000191660001916815260200191505060405180910390f35b341561045457600080fd5b61045c610a2d565b604051808273ffffffffffffffffffffffffffffffffffffffff1673ffffffffffffffffffffffffffffffffffffffff16815260200191505060405180910390f35b34156104a957600080fd5b6104d5600480803573ffffffffffffffffffffffffffffffffffffffff16906020019091905050610a52565b005b34156104e257600080fd5b6104fc600480803560001916906020019091905050610a7c565b005b341561050957600080fd5b610511610eeb565b60405180826000191660001916815260200191505060405180910390f35b341561053a57600080fd5b610542610ef1565b60405180826000191660001916815260200191505060405180910390f35b341561056b57600080fd5b610573610f5b565b60405180826000191660001916815260200191505060405180910390f35b600360010281565b600360009054906101000a900473ffffffffffffffffffffffffffffffffffffffff1681565b600060010260405180807f657468000000000000000000000000000000000000000000000000000000000081525060030190506040518091039020604051808360001916600019168152602001826000191660001916815260200192505050604051809103902060405180807f7265736f6c76657200000000000000000000000000000000000000000000000081525060080190506040518091039020604051808360001916600019168152602001826000191660001916815260200192505050604051809103902081565b60006001800261069b3382610742565b15156106a657600080fd5b6106b08430610f62565b91506106bc82846111ba565b5092915050565b6000600180026106d33382610742565b15156106de57600080fd5b6106e88484610f62565b91505092915050565b60015481565b6000600254905090565b60405180807f65746800000000000000000000000000000000000000000000000000000000008152506003019050604051809103902081565b600060010281565b6000806000809054906101000a900473ffffffffffffffffffffffffffffffffffffffff1673ffffffffffffffffffffffffffffffffffffffff1614806108a857506000809054906101000a900473ffffffffffffffffffffffffffffffffffffffff1673ffffffffffffffffffffffffffffffffffffffff16636d6712d88430856000604051602001526040518463ffffffff167c0100000000000000000000000000000000000000000000000000000000028152600401808473ffffffffffffffffffffffffffffffffffffffff1673ffffffffffffffffffffffffffffffffffffffff1681526020018373ffffffffffffffffffffffffffffffffffffffff1673ffffffffffffffffffffffffffffffffffffffff16815260200182600019166000191681526020019350505050602060405180830381600087803b151561088c57600080fd5b6102c65a03f1151561089d57600080fd5b505050604051805190505b905092915050565b600260010281565b60006002541415156108c957600080fd5b6108d1611432565b3073ffffffffffffffffffffffffffffffffffffffff168273ffffffffffffffffffffffffffffffffffffffff166302571be3836000604051602001526040518263ffffffff167c0100000000000000000000000000000000000000000000000000000000028152600401808260001916600019168152602001915050602060405180830381600087803b151561096757600080fd5b6102c65a03f1151561097857600080fd5b5050506040518051905073ffffffffffffffffffffffffffffffffffffffff161415156109a457600080fd5b81600360006101000a81548173ffffffffffffffffffffffffffffffffffffffff021916908373ffffffffffffffffffffffffffffffffffffffff16021790555080600481600019169055505050565b60405180807f7265736f6c7665720000000000000000000000000000000000000000000000008152506008019050604051809103902081565b6000809054906101000a900473ffffffffffffffffffffffffffffffffffffffff1681565b6003600102610a613382610742565b1515610a6c57600080fd5b610a78600454836111ba565b5050565b6000806002600102610a8e3382610742565b1515610a9957600080fd5b6004548460405180836000191660001916815260200182600019166000191681526020019250505060405180910390209250600360009054906101000a900473ffffffffffffffffffffffffffffffffffffffff1673ffffffffffffffffffffffffffffffffffffffff166302571be3846000604051602001526040518263ffffffff167c0100000000000000000000000000000000000000000000000000000000028152600401808260001916600019168152602001915050602060405180830381600087803b1515610b6c57600080fd5b6102c65a03f11515610b7d57600080fd5b505050604051805190509150600073ffffffffffffffffffffffffffffffffffffffff168273ffffffffffffffffffffffffffffffffffffffff1614151515610bc557600080fd5b3073ffffffffffffffffffffffffffffffffffffffff168273ffffffffffffffffffffffffffffffffffffffff16141515610ced57600360009054906101000a900473ffffffffffffffffffffffffffffffffffffffff1673ffffffffffffffffffffffffffffffffffffffff166306ab592360045486306040518463ffffffff167c010000000000000000000000000000000000000000000000000000000002815260040180846000191660001916815260200183600019166000191681526020018273ffffffffffffffffffffffffffffffffffffffff1673ffffffffffffffffffffffffffffffffffffffff1681526020019350505050600060405180830381600087803b1515610cd857600080fd5b6102c65a03f11515610ce957600080fd5b5050505b600360009054906101000a900473ffffffffffffffffffffffffffffffffffffffff1673ffffffffffffffffffffffffffffffffffffffff16631896f70a8460006040518363ffffffff167c01000000000000000000000000000000000000000000000000000000000281526004018083600019166000191681526020018273ffffffffffffffffffffffffffffffffffffffff1673ffffffffffffffffffffffffffffffffffffffff16815260200192505050600060405180830381600087803b1515610dba57600080fd5b6102c65a03f11515610dcb57600080fd5b505050600360009054906101000a900473ffffffffffffffffffffffffffffffffffffffff1673ffffffffffffffffffffffffffffffffffffffff16635b0fc9c38460006040518363ffffffff167c01000000000000000000000000000000000000000000000000000000000281526004018083600019166000191681526020018273ffffffffffffffffffffffffffffffffffffffff1673ffffffffffffffffffffffffffffffffffffffff16815260200192505050600060405180830381600087803b1515610e9b57600080fd5b6102c65a03f11515610eac57600080fd5b505050836000191683600019167f49a4cd9bb38e10e402c44a680c5e13f710666ed683cb9cbbc131f7dc9f8b9d6060405160405180910390a350505050565b60045481565b600060010260405180807f657468000000000000000000000000000000000000000000000000000000000081525060030190506040518091039020604051808360001916600019168152602001826000191660001916815260200192505050604051809103902081565b6001800281565b60006004548360405180836000191660001916815260200182600019166000191681526020019250505060405180910390209050600073ffffffffffffffffffffffffffffffffffffffff16600360009054906101000a900473ffffffffffffffffffffffffffffffffffffffff1673ffffffffffffffffffffffffffffffffffffffff166302571be3836000604051602001526040518263ffffffff167c0100000000000000000000000000000000000000000000000000000000028152600401808260001916600019168152602001915050602060405180830381600087803b151561104f57600080fd5b6102c65a03f1151561106057600080fd5b5050506040518051905073ffffffffffffffffffffffffffffffffffffffff1614151561108c57600080fd5b600360009054906101000a900473ffffffffffffffffffffffffffffffffffffffff1673ffffffffffffffffffffffffffffffffffffffff166306ab592360045485856040518463ffffffff167c010000000000000000000000000000000000000000000000000000000002815260040180846000191660001916815260200183600019166000191681526020018273ffffffffffffffffffffffffffffffffffffffff1673ffffffffffffffffffffffffffffffffffffffff1681526020019350505050600060405180830381600087803b151561116a57600080fd5b6102c65a03f1151561117b57600080fd5b505050826000191681600019167f8f858576a6066f5ecb4d2f49d40fac9db317ff8d5f7610d58b616b657d7044cf60405160405180910390a392915050565b600061128d600060010260405180807f657468000000000000000000000000000000000000000000000000000000000081525060030190506040518091039020604051808360001916600019168152602001826000191660001916815260200192505050604051809103902060405180807f7265736f6c766572000000000000000000000000000000000000000000000000815250600801905060405180910390206040518083600019166000191681526020018260001916600019168152602001925050506040518091039020611453565b9050600360009054906101000a900473ffffffffffffffffffffffffffffffffffffffff1673ffffffffffffffffffffffffffffffffffffffff16631896f70a84836040518363ffffffff167c01000000000000000000000000000000000000000000000000000000000281526004018083600019166000191681526020018273ffffffffffffffffffffffffffffffffffffffff1673ffffffffffffffffffffffffffffffffffffffff16815260200192505050600060405180830381600087803b151561135b57600080fd5b6102c65a03f1151561136c57600080fd5b5050508073ffffffffffffffffffffffffffffffffffffffff1663d5fa2b0084846040518363ffffffff167c01000000000000000000000000000000000000000000000000000000000281526004018083600019166000191681526020018273ffffffffffffffffffffffffffffffffffffffff1673ffffffffffffffffffffffffffffffffffffffff16815260200192505050600060405180830381600087803b151561141957600080fd5b6102c65a03f1151561142a57600080fd5b505050505050565b600060025414151561144357600080fd5b61144b6115b6565b600281905550565b600080600360009054906101000a900473ffffffffffffffffffffffffffffffffffffffff1673ffffffffffffffffffffffffffffffffffffffff16630178b8bf846000604051602001526040518263ffffffff167c0100000000000000000000000000000000000000000000000000000000028152600401808260001916600019168152602001915050602060405180830381600087803b15156114f757600080fd5b6102c65a03f1151561150857600080fd5b5050506040518051905090508073ffffffffffffffffffffffffffffffffffffffff16633b3b57de846000604051602001526040518263ffffffff167c0100000000000000000000000000000000000000000000000000000000028152600401808260001916600019168152602001915050602060405180830381600087803b151561159357600080fd5b6102c65a03f115156115a457600080fd5b50505060405180519050915050919050565b6000439050905600a165627a7a723058201a28a6ede32b04b243bfb987128c0a79cdc850276473f25fa07bd2607fc8c23a0029",
  "source": "pragma solidity 0.4.18;\n\nimport \"../lib/ens/AbstractENS.sol\";\nimport \"../lib/ens/PublicResolver.sol\";\nimport \"./ENSConstants.sol\";\n\nimport \"../apps/AragonApp.sol\";\n\n\ncontract ENSSubdomainRegistrar is AragonApp, ENSConstants {\n    bytes32 constant public CREATE_NAME_ROLE = bytes32(1);\n    bytes32 constant public DELETE_NAME_ROLE = bytes32(2);\n    bytes32 constant public POINT_ROOTNODE_ROLE = bytes32(3);\n    // TODO: Add claim root name\n\n    AbstractENS public ens;\n    bytes32 public rootNode;\n\n    event NewName(bytes32 indexed node, bytes32 indexed label);\n    event DeleteName(bytes32 indexed node, bytes32 indexed label);\n\n    function initialize(AbstractENS _ens, bytes32 _rootNode) onlyInit public {\n        initialized();\n\n        // We need ownership to create subnodes\n        require(_ens.owner(_rootNode) == address(this));\n\n        ens = _ens;\n        rootNode = _rootNode;\n    }\n\n    function createName(bytes32 _label, address _owner) auth(CREATE_NAME_ROLE) external returns (bytes32 node) {\n        return _createName(_label, _owner);\n    }\n\n    function createNameAndPoint(bytes32 _label, address _target) auth(CREATE_NAME_ROLE) external returns (bytes32 node) {\n        node = _createName(_label, this);\n        _pointToResolverAndResolve(node, _target);\n    }\n\n    function deleteName(bytes32 _label) auth(DELETE_NAME_ROLE) external {\n        bytes32 node = keccak256(rootNode, _label);\n\n        address currentOwner = ens.owner(node);\n\n        require(currentOwner != address(0)); // fail if deleting unset name\n\n        if (currentOwner != address(this)) { // needs to reclaim ownership so it can set resolver\n            ens.setSubnodeOwner(rootNode, _label, this);\n        }\n\n        ens.setResolver(node, address(0)); // remove resolver so it ends resolving\n        ens.setOwner(node, address(0));\n\n        DeleteName(node, _label);\n    }\n\n    function pointRootNode(address _target) auth(POINT_ROOTNODE_ROLE) external {\n        _pointToResolverAndResolve(rootNode, _target);\n    }\n\n    function _createName(bytes32 _label, address _owner) internal returns (bytes32 node) {\n        node = keccak256(rootNode, _label);\n        require(ens.owner(node) == address(0)); // avoid name reset\n\n        ens.setSubnodeOwner(rootNode, _label, _owner);\n\n        NewName(node, _label);\n    }\n\n    function _pointToResolverAndResolve(bytes32 _node, address _target) internal {\n        address publicResolver = getAddr(PUBLIC_RESOLVER_NODE);\n        ens.setResolver(_node, publicResolver);\n\n        PublicResolver(publicResolver).setAddr(_node, _target);\n    }\n\n    function getAddr(bytes32 node) internal view returns (address) {\n        address resolver = ens.resolver(node);\n        return PublicResolver(resolver).addr(node);\n    }\n}\n",
  "sourcePath": "/Users/onbjerg/Workspace/aragon/aragonos/contracts/ens/ENSSubdomainRegistrar.sol",
  "compiler": {
    "name": "solc",
    "version": "0.4.18+commit.9cf6e910.Emscripten.clang"
  },
  "schemaVersion": "1.0.1",
  "updatedAt": "2018-01-17T16:29:36.957Z"
}