{
  "contractName": "Kernel",
  "abi": [
    {
      "constant": false,
      "inputs": [
        {
          "name": "_entity",
          "type": "address"
        },
        {
          "name": "_app",
          "type": "address"
        },
        {
          "name": "_role",
          "type": "bytes32"
        }
      ],
      "name": "grantPermission",
      "outputs": [],
      "payable": false,
      "stateMutability": "nonpayable",
      "type": "function"
    },
    {
      "constant": true,
      "inputs": [
        {
          "name": "_appId",
          "type": "bytes32"
        }
      ],
      "name": "getAppCode",
      "outputs": [
        {
          "name": "",
          "type": "address"
        }
      ],
      "payable": false,
      "stateMutability": "view",
      "type": "function"
    },
    {
      "constant": true,
      "inputs": [],
      "name": "CREATE_PERMISSIONS_ROLE",
      "outputs": [
        {
          "name": "",
          "type": "bytes32"
        }
      ],
      "payable": false,
      "stateMutability": "view",
      "type": "function"
    },
    {
      "constant": false,
      "inputs": [
        {
          "name": "_appId",
          "type": "bytes32"
        },
        {
          "name": "_code",
          "type": "address"
        }
      ],
      "name": "setAppCode",
      "outputs": [],
      "payable": false,
      "stateMutability": "nonpayable",
      "type": "function"
    },
    {
      "constant": false,
      "inputs": [
        {
          "name": "_newKernel",
          "type": "address"
        }
      ],
      "name": "upgradeKernel",
      "outputs": [],
      "payable": false,
      "stateMutability": "nonpayable",
      "type": "function"
    },
    {
      "constant": true,
      "inputs": [
        {
          "name": "_entity",
          "type": "address"
        },
        {
          "name": "_app",
          "type": "address"
        },
        {
          "name": "_role",
          "type": "bytes32"
        }
      ],
      "name": "hasPermission",
      "outputs": [
        {
          "name": "",
          "type": "bool"
        }
      ],
      "payable": false,
      "stateMutability": "view",
      "type": "function"
    },
    {
      "constant": true,
      "inputs": [],
      "name": "UPGRADE_APPS_ROLE",
      "outputs": [
        {
          "name": "",
          "type": "bytes32"
        }
      ],
      "payable": false,
      "stateMutability": "view",
      "type": "function"
    },
    {
      "constant": true,
      "inputs": [],
      "name": "getInitializationBlock",
      "outputs": [
        {
          "name": "",
          "type": "uint256"
        }
      ],
      "payable": false,
      "stateMutability": "view",
      "type": "function"
    },
    {
      "constant": false,
      "inputs": [
        {
          "name": "_entity",
          "type": "address"
        },
        {
          "name": "_app",
          "type": "address"
        },
        {
          "name": "_role",
          "type": "bytes32"
        }
      ],
      "name": "revokePermission",
      "outputs": [],
      "payable": false,
      "stateMutability": "nonpayable",
      "type": "function"
    },
    {
      "constant": false,
      "inputs": [
        {
          "name": "_newManager",
          "type": "address"
        },
        {
          "name": "_app",
          "type": "address"
        },
        {
          "name": "_role",
          "type": "bytes32"
        }
      ],
      "name": "setPermissionManager",
      "outputs": [],
      "payable": false,
      "stateMutability": "nonpayable",
      "type": "function"
    },
    {
      "constant": true,
      "inputs": [
        {
          "name": "_app",
          "type": "address"
        },
        {
          "name": "_role",
          "type": "bytes32"
        }
      ],
      "name": "getPermissionManager",
      "outputs": [
        {
          "name": "",
          "type": "address"
        }
      ],
      "payable": false,
      "stateMutability": "view",
      "type": "function"
    },
    {
      "constant": false,
      "inputs": [
        {
          "name": "_entity",
          "type": "address"
        },
        {
          "name": "_app",
          "type": "address"
        },
        {
          "name": "_role",
          "type": "bytes32"
        },
        {
          "name": "_manager",
          "type": "address"
        }
      ],
      "name": "createPermission",
      "outputs": [],
      "payable": false,
      "stateMutability": "nonpayable",
      "type": "function"
    },
    {
      "constant": false,
      "inputs": [
        {
          "name": "_permissionsCreator",
          "type": "address"
        }
      ],
      "name": "initialize",
      "outputs": [],
      "payable": false,
      "stateMutability": "nonpayable",
      "type": "function"
    },
    {
      "constant": true,
      "inputs": [],
      "name": "UPGRADE_KERNEL_ROLE",
      "outputs": [
        {
          "name": "",
          "type": "bytes32"
        }
      ],
      "payable": false,
      "stateMutability": "view",
      "type": "function"
    },
    {
      "constant": true,
      "inputs": [],
      "name": "kernelImpl",
      "outputs": [
        {
          "name": "",
          "type": "address"
        }
      ],
      "payable": false,
      "stateMutability": "view",
      "type": "function"
    },
    {
      "anonymous": false,
      "inputs": [
        {
          "indexed": true,
          "name": "entity",
          "type": "address"
        },
        {
          "indexed": true,
          "name": "app",
          "type": "address"
        },
        {
          "indexed": true,
          "name": "role",
          "type": "bytes32"
        },
        {
          "indexed": false,
          "name": "allowed",
          "type": "bool"
        }
      ],
      "name": "SetPermission",
      "type": "event"
    },
    {
      "anonymous": false,
      "inputs": [
        {
          "indexed": true,
          "name": "app",
          "type": "address"
        },
        {
          "indexed": true,
          "name": "role",
          "type": "bytes32"
        },
        {
          "indexed": true,
          "name": "manager",
          "type": "address"
        }
      ],
      "name": "ChangePermissionManager",
      "type": "event"
    },
    {
      "anonymous": false,
      "inputs": [
        {
          "indexed": true,
          "name": "newKernel",
          "type": "address"
        }
      ],
      "name": "UpgradeKernel",
      "type": "event"
    },
    {
      "anonymous": false,
      "inputs": [
        {
          "indexed": true,
          "name": "appId",
          "type": "bytes32"
        },
        {
          "indexed": true,
          "name": "newAppCode",
          "type": "address"
        }
      ],
      "name": "SetAppCode",
      "type": "event"
    }
  ],
  "bytecode": "0x6060604052341561000f57600080fd5b610df28061001e6000396000f3006060604052600436106100db576000357c0100000000000000000000000000000000000000000000000000000000900463ffffffff1680630a8ed3db146100e0578063186bbb05146101455780633d6ab68f146101ac5780635e4a8a20146101dd5780636a9cd450146102235780636d6712d81461025c57806384d497f1146102d95780638b3dd7491461030a5780639d0effdb14610333578063afd925df14610398578063b1905727146103fd578063be03847814610483578063c4d66de814610507578063ca5b813114610540578063d292009114610571575b600080fd5b34156100eb57600080fd5b610143600480803573ffffffffffffffffffffffffffffffffffffffff1690602001909190803573ffffffffffffffffffffffffffffffffffffffff16906020019091908035600019169060200190919050506105c6565b005b341561015057600080fd5b61016a600480803560001916906020019091905050610636565b604051808273ffffffffffffffffffffffffffffffffffffffff1673ffffffffffffffffffffffffffffffffffffffff16815260200191505060405180910390f35b34156101b757600080fd5b6101bf61067b565b60405180826000191660001916815260200191505060405180910390f35b34156101e857600080fd5b61022160048080356000191690602001909190803573ffffffffffffffffffffffffffffffffffffffff16906020019091905050610682565b005b341561022e57600080fd5b61025a600480803573ffffffffffffffffffffffffffffffffffffffff16906020019091905050610744565b005b341561026757600080fd5b6102bf600480803573ffffffffffffffffffffffffffffffffffffffff1690602001909190803573ffffffffffffffffffffffffffffffffffffffff16906020019091908035600019169060200190919050506107e6565b604051808215151515815260200191505060405180910390f35b34156102e457600080fd5b6102ec610894565b60405180826000191660001916815260200191505060405180910390f35b341561031557600080fd5b61031d61089c565b6040518082815260200191505060405180910390f35b341561033e57600080fd5b610396600480803573ffffffffffffffffffffffffffffffffffffffff1690602001909190803573ffffffffffffffffffffffffffffffffffffffff16906020019091908035600019169060200190919050506108a6565b005b34156103a357600080fd5b6103fb600480803573ffffffffffffffffffffffffffffffffffffffff1690602001909190803573ffffffffffffffffffffffffffffffffffffffff1690602001909190803560001916906020019091905050610915565b005b341561040857600080fd5b610441600480803573ffffffffffffffffffffffffffffffffffffffff169060200190919080356000191690602001909190505061096c565b604051808273ffffffffffffffffffffffffffffffffffffffff1673ffffffffffffffffffffffffffffffffffffffff16815260200191505060405180910390f35b341561048e57600080fd5b610505600480803573ffffffffffffffffffffffffffffffffffffffff1690602001909190803573ffffffffffffffffffffffffffffffffffffffff169060200190919080356000191690602001909190803573ffffffffffffffffffffffffffffffffffffffff169060200190919050506109ef565b005b341561051257600080fd5b61053e600480803573ffffffffffffffffffffffffffffffffffffffff16906020019091905050610a1c565b005b341561054b57600080fd5b610553610a47565b60405180826000191660001916815260200191505060405180910390f35b341561057c57600080fd5b610584610a4f565b604051808273ffffffffffffffffffffffffffffffffffffffff1673ffffffffffffffffffffffffffffffffffffffff16815260200191505060405180910390f35b81816105d2828261096c565b73ffffffffffffffffffffffffffffffffffffffff163373ffffffffffffffffffffffffffffffffffffffff1614151561060b57600080fd5b6106168585856107e6565b15151561062257600080fd5b61062f8585856001610a74565b5050505050565b600060046000836000191660001916815260200190815260200160002060009054906101000a900473ffffffffffffffffffffffffffffffffffffffff169050919050565b6001800281565b60026001026106923330836107e6565b151561069d57600080fd5b8160046000856000191660001916815260200190815260200160002060006101000a81548173ffffffffffffffffffffffffffffffffffffffff021916908373ffffffffffffffffffffffffffffffffffffffff1602179055508173ffffffffffffffffffffffffffffffffffffffff1683600019167f7536c7703d321558d15a6f344db59e1721430eeb9885a88b380f91b70bb0b4ee60405160405180910390a3505050565b60036001026107543330836107e6565b151561075f57600080fd5b816000806101000a81548173ffffffffffffffffffffffffffffffffffffffff021916908373ffffffffffffffffffffffffffffffffffffffff1602179055508173ffffffffffffffffffffffffffffffffffffffff167fbea42e79b2b57325eb886f0c3a902833b307facd4817bb1e4e3a58995aed804d60405160405180910390a25050565b6000600260008573ffffffffffffffffffffffffffffffffffffffff1673ffffffffffffffffffffffffffffffffffffffff16815260200190815260200160002060008473ffffffffffffffffffffffffffffffffffffffff1673ffffffffffffffffffffffffffffffffffffffff1681526020019081526020016000206000836000191660001916815260200190815260200160002060009054906101000a900460ff1690509392505050565b600260010281565b6000600154905090565b81816108b2828261096c565b73ffffffffffffffffffffffffffffffffffffffff163373ffffffffffffffffffffffffffffffffffffffff161415156108eb57600080fd5b6108f68585856107e6565b151561090157600080fd5b61090e8585856000610a74565b5050505050565b8181610921828261096c565b73ffffffffffffffffffffffffffffffffffffffff163373ffffffffffffffffffffffffffffffffffffffff1614151561095a57600080fd5b610965858585610b95565b5050505050565b6000600360008473ffffffffffffffffffffffffffffffffffffffff1673ffffffffffffffffffffffffffffffffffffffff1681526020019081526020016000206000836000191660001916815260200190815260200160002060009054906101000a900473ffffffffffffffffffffffffffffffffffffffff16905092915050565b600180026109fe3330836107e6565b1515610a0957600080fd5b610a1585858585610ccc565b5050505050565b6000600154141515610a2d57600080fd5b610a35610d9d565b610a4481306001800284610ccc565b50565b600360010281565b6000809054906101000a900473ffffffffffffffffffffffffffffffffffffffff1681565b80600260008673ffffffffffffffffffffffffffffffffffffffff1673ffffffffffffffffffffffffffffffffffffffff16815260200190815260200160002060008573ffffffffffffffffffffffffffffffffffffffff1673ffffffffffffffffffffffffffffffffffffffff1681526020019081526020016000206000846000191660001916815260200190815260200160002060006101000a81548160ff02191690831515021790555081600019168373ffffffffffffffffffffffffffffffffffffffff168573ffffffffffffffffffffffffffffffffffffffff167f759b9a74d5354b5801710a0c1b283cc9f0d32b607ac8ced10c83ac8e75c77d5284604051808215151515815260200191505060405180910390a450505050565b600073ffffffffffffffffffffffffffffffffffffffff168373ffffffffffffffffffffffffffffffffffffffff1614151515610bd157600080fd5b82600360008473ffffffffffffffffffffffffffffffffffffffff1673ffffffffffffffffffffffffffffffffffffffff1681526020019081526020016000206000836000191660001916815260200190815260200160002060006101000a81548173ffffffffffffffffffffffffffffffffffffffff021916908373ffffffffffffffffffffffffffffffffffffffff1602179055508273ffffffffffffffffffffffffffffffffffffffff1681600019168373ffffffffffffffffffffffffffffffffffffffff167ff3addc8b8e25ee11528a61b0e65092cae0666ef0ec0c64cb303993c88d689b4d60405160405180910390a4505050565b600073ffffffffffffffffffffffffffffffffffffffff16600360008573ffffffffffffffffffffffffffffffffffffffff1673ffffffffffffffffffffffffffffffffffffffff1681526020019081526020016000206000846000191660001916815260200190815260200160002060009054906101000a900473ffffffffffffffffffffffffffffffffffffffff1673ffffffffffffffffffffffffffffffffffffffff16141515610d7f57600080fd5b610d8c8484846001610a74565b610d97818484610b95565b50505050565b6000600154141515610dae57600080fd5b610db6610dbe565b600181905550565b6000439050905600a165627a7a723058204e6aa953c39b20ce221a96b140d2576a9c1c9188ebdd0e423637ab0e33755e9d0029",
  "source": "pragma solidity 0.4.18;\n\nimport \"./IKernel.sol\";\nimport \"./KernelStorage.sol\";\nimport \"../common/Initializable.sol\";\n\n\ncontract Kernel is IKernel, KernelStorage, Initializable {\n    bytes32 constant public CREATE_PERMISSIONS_ROLE = bytes32(1);\n    bytes32 constant public UPGRADE_APPS_ROLE = bytes32(2);\n    bytes32 constant public UPGRADE_KERNEL_ROLE = bytes32(3);\n\n    // whether a certain entity has a permission\n    mapping (address => mapping (address => mapping (bytes32 => bool))) permissions;\n    // who is the manager of a permission\n    mapping (address => mapping (bytes32 => address)) permissionManager;\n    // appId -> implementation\n    mapping (bytes32 => address) appCode;\n\n    modifier onlyPermissionManager(address app, bytes32 role) {\n        require(msg.sender == getPermissionManager(app, role));\n        _;\n    }\n\n    /**\n    * @dev Initialize can only be called once. It saves the block number in which it was initialized.\n    * @notice Initializes a kernel instance and sets `_permissionsCreator` as the entity that can create other permissions\n    * @param _permissionsCreator Entity that will be given permission over createPermission\n    */\n    function initialize(address _permissionsCreator) onlyInit public {\n        initialized();\n\n        // Permissions creator cannot be address(0), it will fail on setPermissionManager\n\n        _createPermission(\n            _permissionsCreator,\n            address(this),\n            CREATE_PERMISSIONS_ROLE,\n            _permissionsCreator\n        );\n    }\n\n    /**\n    * @dev Creates a permission that wasn't previously set. Access is limited by the ACL.\n    *      If a created permission is removed it is possible to reset it with createPermission.\n    * @notice Create a new permission granting `_entity` the ability to perform actions of role `_role` on `_app` (setting `_manager` as parent)\n    * @param _entity Address of the whitelisted entity that will be able to perform the role\n    * @param _app Address of the app in which the role will be allowed (requires app to depend on kernel for ACL)\n    * @param _role Identifier for the group of actions in app given access to perform\n    * @param _manager Address of the entity that will be able to grant and revoke the permission further.\n    */\n    function createPermission(\n        address _entity,\n        address _app,\n        bytes32 _role,\n        address _manager\n    )\n        auth(CREATE_PERMISSIONS_ROLE)\n        external\n    {\n        _createPermission(\n            _entity,\n            _app,\n            _role,\n            _manager\n        );\n    }\n\n    /**\n    * @dev Grants a permission if allowed. This requires `msg.sender` to be the permission manager\n    * @notice Grants `_entity` the ability to perform actions of role `_role` on `_app`\n    * @param _entity Address of the whitelisted entity that will be able to perform the role\n    * @param _app Address of the app in which the role will be allowed (requires app to depend on kernel for ACL)\n    * @param _role Identifier for the group of actions in app given access to perform\n    */\n    function grantPermission(address _entity, address _app, bytes32 _role)\n        onlyPermissionManager(_app, _role)\n        external\n    {\n        require(!hasPermission(_entity, _app, _role));\n        _setPermission(\n            _entity,\n            _app,\n            _role,\n            true\n        );\n    }\n\n    /**\n    * @dev Revokes permission if allowed. This requires `msg.sender` to be the parent of the permission\n    * @notice Revokes `_entity` the ability to perform actions of role `_role` on `_app`\n    * @param _entity Address of the whitelisted entity that will be revoked access\n    * @param _app Address of the app in which the role is revoked\n    * @param _role Identifier for the group of actions in app given access to perform\n    */\n    function revokePermission(address _entity, address _app, bytes32 _role)\n        onlyPermissionManager(_app, _role)\n        external\n    {\n        require(hasPermission(_entity, _app, _role));\n        _setPermission(\n            _entity,\n            _app,\n            _role,\n            false\n        );\n    }\n\n    /**\n    * @notice Sets `_newManager` as the manager of the permission `_role` in `_app`\n    * @param _newManager Address for the new manager\n    * @param _app Address of the app in which the permission management is being transferred\n    * @param _role Identifier for the group of actions in app given access to perform\n    */\n    function setPermissionManager(address _newManager, address _app, bytes32 _role)\n        onlyPermissionManager(_app, _role)\n        external\n    {\n        _setPermissionManager(_newManager, _app, _role);\n    }\n\n    /**\n    * @dev Changes appCode reference for `_appId`. This role is required before an app with a certain appId working properly\n    * @notice Upgrade app code of `_appId` to new implementation at address `_code` (CRITICAL!)\n    * @param _appId Namehash of the app name\n    * @param _code Address of new implementation for app\n    */\n    function setAppCode(bytes32 _appId, address _code) auth(UPGRADE_APPS_ROLE) external {\n        appCode[_appId] = _code;\n        SetAppCode(_appId, _code);\n    }\n\n    /**\n    * @dev Changes kernel implementation reference to a new address\n    * @notice Upgrade kernel to new implementation at address `_newKernel` (CRITICAL!)\n    * @param _newKernel Address for new kernel code\n    */\n    function upgradeKernel(address _newKernel) auth(UPGRADE_KERNEL_ROLE) external {\n        kernelImpl = _newKernel;\n        UpgradeKernel(_newKernel);\n    }\n\n    /**\n    * @dev Get manager address for permission\n    * @param _app Address of the app\n    * @param _role Identifier for a group of actions in app\n    * @return address of the manager for the permission\n    */\n    function getPermissionManager(address _app, bytes32 _role) view public returns (address) {\n        return permissionManager[_app][_role];\n    }\n\n    /**\n    * @dev Function called by apps to check ACL on kernel or to check permission statu\n    * @param _entity Sender of the original call\n    * @param _app Address of the app\n    * @param _role Identifier for a group of actions in app\n    * @return boolean indicating whether the ACL allows the role or not\n    */\n    function hasPermission(address _entity, address _app, bytes32 _role) view public returns (bool) {\n        return permissions[_entity][_app][_role];\n    }\n\n    /**\n    * @dev Function called by AppProxies to get app code reference\n    * @param _appId Identifier for app\n    * @return address for app code\n    */\n    function getAppCode(bytes32 _appId) view public returns (address) {\n        return appCode[_appId];\n    }\n\n    /**\n    * @dev Internal createPermission for access inside the kernel (on instantiation)\n    */\n    function _createPermission(\n        address _entity,\n        address _app,\n        bytes32 _role,\n        address _manager\n    )\n        internal\n    {\n        // only allow permission creation when it has no manager (hasn't been created before)\n        require(permissionManager[_app][_role] == address(0));\n\n        _setPermission(\n            _entity,\n            _app,\n            _role,\n            true\n        );\n        _setPermissionManager(_manager, _app, _role);\n    }\n\n    /**\n    * @dev Internal function called to actually save the permission\n    */\n    function _setPermission(\n        address _entity,\n        address _app,\n        bytes32 _role,\n        bool _allowed\n    )\n        internal\n    {\n        permissions[_entity][_app][_role] = _allowed;\n\n        SetPermission(\n            _entity,\n            _app,\n            _role,\n            _allowed\n        );\n    }\n\n    /**\n    * @dev Internal function that sets management\n    */\n    function _setPermissionManager(address _newManager, address _app, bytes32 _role) internal {\n        require(_newManager != address(0));\n\n        permissionManager[_app][_role] = _newManager;\n        ChangePermissionManager(_app, _role, _newManager);\n    }\n\n    modifier auth(bytes32 _role) {\n        require(hasPermission(msg.sender, address(this), _role));\n        _;\n    }\n}\n",
  "sourcePath": "/Users/onbjerg/Workspace/aragon/aragonos/contracts/kernel/Kernel.sol",
  "compiler": {
    "name": "solc",
    "version": "0.4.18+commit.9cf6e910.Emscripten.clang"
  },
  "schemaVersion": "1.0.1",
  "updatedAt": "2018-01-17T16:29:36.960Z"
}