{
  "contractName": "Repo",
  "abi": [
    {
      "constant": true,
      "inputs": [
        {
          "name": "_semanticVersion",
          "type": "uint16[3]"
        }
      ],
      "name": "getBySemanticVersion",
      "outputs": [
        {
          "name": "semanticVersion",
          "type": "uint16[3]"
        },
        {
          "name": "contractAddress",
          "type": "address"
        },
        {
          "name": "contentURI",
          "type": "bytes"
        }
      ],
      "payable": false,
      "stateMutability": "view",
      "type": "function"
    },
    {
      "constant": false,
      "inputs": [
        {
          "name": "_newSemanticVersion",
          "type": "uint16[3]"
        },
        {
          "name": "_contractAddress",
          "type": "address"
        },
        {
          "name": "_contentURI",
          "type": "bytes"
        }
      ],
      "name": "newVersion",
      "outputs": [],
      "payable": false,
      "stateMutability": "nonpayable",
      "type": "function"
    },
    {
      "constant": true,
      "inputs": [
        {
          "name": "_versionId",
          "type": "uint256"
        }
      ],
      "name": "getByVersionId",
      "outputs": [
        {
          "name": "semanticVersion",
          "type": "uint16[3]"
        },
        {
          "name": "contractAddress",
          "type": "address"
        },
        {
          "name": "contentURI",
          "type": "bytes"
        }
      ],
      "payable": false,
      "stateMutability": "view",
      "type": "function"
    },
    {
      "constant": true,
      "inputs": [],
      "name": "appId",
      "outputs": [
        {
          "name": "",
          "type": "bytes32"
        }
      ],
      "payable": false,
      "stateMutability": "view",
      "type": "function"
    },
    {
      "constant": true,
      "inputs": [],
      "name": "getInitializationBlock",
      "outputs": [
        {
          "name": "",
          "type": "uint256"
        }
      ],
      "payable": false,
      "stateMutability": "view",
      "type": "function"
    },
    {
      "constant": true,
      "inputs": [
        {
          "name": "_contractAddress",
          "type": "address"
        }
      ],
      "name": "getLatestForContractAddress",
      "outputs": [
        {
          "name": "semanticVersion",
          "type": "uint16[3]"
        },
        {
          "name": "contractAddress",
          "type": "address"
        },
        {
          "name": "contentURI",
          "type": "bytes"
        }
      ],
      "payable": false,
      "stateMutability": "view",
      "type": "function"
    },
    {
      "constant": true,
      "inputs": [
        {
          "name": "_oldVersion",
          "type": "uint16[3]"
        },
        {
          "name": "_newVersion",
          "type": "uint16[3]"
        }
      ],
      "name": "isValidBump",
      "outputs": [
        {
          "name": "",
          "type": "bool"
        }
      ],
      "payable": false,
      "stateMutability": "view",
      "type": "function"
    },
    {
      "constant": true,
      "inputs": [],
      "name": "CREATE_VERSION_ROLE",
      "outputs": [
        {
          "name": "",
          "type": "bytes32"
        }
      ],
      "payable": false,
      "stateMutability": "view",
      "type": "function"
    },
    {
      "constant": true,
      "inputs": [
        {
          "name": "_sender",
          "type": "address"
        },
        {
          "name": "_role",
          "type": "bytes32"
        }
      ],
      "name": "canPerform",
      "outputs": [
        {
          "name": "",
          "type": "bool"
        }
      ],
      "payable": false,
      "stateMutability": "view",
      "type": "function"
    },
    {
      "constant": true,
      "inputs": [],
      "name": "getLatest",
      "outputs": [
        {
          "name": "semanticVersion",
          "type": "uint16[3]"
        },
        {
          "name": "contractAddress",
          "type": "address"
        },
        {
          "name": "contentURI",
          "type": "bytes"
        }
      ],
      "payable": false,
      "stateMutability": "view",
      "type": "function"
    },
    {
      "constant": true,
      "inputs": [],
      "name": "getVersionsCount",
      "outputs": [
        {
          "name": "",
          "type": "uint256"
        }
      ],
      "payable": false,
      "stateMutability": "view",
      "type": "function"
    },
    {
      "constant": true,
      "inputs": [],
      "name": "kernel",
      "outputs": [
        {
          "name": "",
          "type": "address"
        }
      ],
      "payable": false,
      "stateMutability": "view",
      "type": "function"
    },
    {
      "anonymous": false,
      "inputs": [
        {
          "indexed": false,
          "name": "versionId",
          "type": "uint256"
        },
        {
          "indexed": false,
          "name": "semanticVersion",
          "type": "uint16[3]"
        }
      ],
      "name": "NewVersion",
      "type": "event"
    }
  ],
  "bytecode": "0x6060604052341561000f57600080fd5b61144e8061001e6000396000f3006060604052600436106100ba576000357c0100000000000000000000000000000000000000000000000000000000900463ffffffff1680634c3ba268146100bf57806373053410146101e0578063737e7d4f1461028857806380afdea8146103865780638b3dd749146103b75780639a6fe50c146103e0578063a7bdf16e146104f4578063aa61924a1461057e578063b3ce5a14146105af578063c36af4601461060d578063c6d48e0d146106fd578063d4aae0c414610726575b600080fd5b34156100ca57600080fd5b6101036004808060600190600380602002604051908101604052809291908260036020028082843782019150505050509190505061077b565b6040518084600360200280838360005b8381101561012e578082015181840152602081019050610113565b505050509050018373ffffffffffffffffffffffffffffffffffffffff1673ffffffffffffffffffffffffffffffffffffffff16815260200180602001828103825283818151815260200191508051906020019080838360005b838110156101a3578082015181840152602081019050610188565b50505050905090810190601f1680156101d05780820380516001836020036101000a031916815260200191505b5094505050505060405180910390f35b34156101eb57600080fd5b6102866004808060600190600380602002604051908101604052809291908260036020028082843782019150505050509190803573ffffffffffffffffffffffffffffffffffffffff1690602001909190803590602001908201803590602001908080601f016020809104026020016040519081016040528093929190818152602001838380828437820191505050505050919050506107c6565b005b341561029357600080fd5b6102a96004808035906020019091905050610b83565b6040518084600360200280838360005b838110156102d45780820151818401526020810190506102b9565b505050509050018373ffffffffffffffffffffffffffffffffffffffff1673ffffffffffffffffffffffffffffffffffffffff16815260200180602001828103825283818151815260200191508051906020019080838360005b8381101561034957808201518184015260208101905061032e565b50505050905090810190601f1680156103765780820380516001836020036101000a031916815260200191505b5094505050505060405180910390f35b341561039157600080fd5b610399610d02565b60405180826000191660001916815260200191505060405180910390f35b34156103c257600080fd5b6103ca610d08565b6040518082815260200191505060405180910390f35b34156103eb57600080fd5b610417600480803573ffffffffffffffffffffffffffffffffffffffff16906020019091905050610d12565b6040518084600360200280838360005b83811015610442578082015181840152602081019050610427565b505050509050018373ffffffffffffffffffffffffffffffffffffffff1673ffffffffffffffffffffffffffffffffffffffff16815260200180602001828103825283818151815260200191508051906020019080838360005b838110156104b757808201518184015260208101905061049c565b50505050905090810190601f1680156104e45780820380516001836020036101000a031916815260200191505b5094505050505060405180910390f35b34156104ff57600080fd5b610564600480806060019060038060200260405190810160405280929190826003602002808284378201915050505050919080606001906003806020026040519081016040528092919082600360200280828437820191505050505091905050610d79565b604051808215151515815260200191505060405180910390f35b341561058957600080fd5b610591610e86565b60405180826000191660001916815260200191505060405180910390f35b34156105ba57600080fd5b6105f3600480803573ffffffffffffffffffffffffffffffffffffffff1690602001909190803560001916906020019091905050610e8d565b604051808215151515815260200191505060405180910390f35b341561061857600080fd5b610620610ffb565b6040518084600360200280838360005b8381101561064b578082015181840152602081019050610630565b505050509050018373ffffffffffffffffffffffffffffffffffffffff1673ffffffffffffffffffffffffffffffffffffffff16815260200180602001828103825283818151815260200191508051906020019080838360005b838110156106c05780820151818401526020810190506106a5565b50505050905090810190601f1680156106ed5780820380516001836020036101000a031916815260200191505b5094505050505060405180910390f35b341561070857600080fd5b610710611029565b6040518082815260200191505060405180910390f35b341561073157600080fd5b61073961104e565b604051808273ffffffffffffffffffffffffffffffffffffffff1673ffffffffffffffffffffffffffffffffffffffff16815260200191505060405180910390f35b610783611156565b600061078d611182565b6107b96004600061079d87611073565b6000191660001916815260200190815260200160002054610b83565b9250925092509193909250565b6000806107d1611156565b6000600180026107e13382610e8d565b15156107ec57600080fd5b8694506000600380549050111561099a57600360016003805490500381548110151561081457fe5b906000526020600020906003020193506108958460000160038060200260405190810160405280929190826003801561088a576020028201916000905b82829054906101000a900461ffff1661ffff16815260200190600201906020826001010492830192600103820291508084116108515790505b505050505089610d79565b15156108a057600080fd5b60008573ffffffffffffffffffffffffffffffffffffffff1614156108e7578360010160009054906101000a900473ffffffffffffffffffffffffffffffffffffffff1694505b8473ffffffffffffffffffffffffffffffffffffffff168460010160009054906101000a900473ffffffffffffffffffffffffffffffffffffffff1673ffffffffffffffffffffffffffffffffffffffff16148061098a575083600001600060038110151561095257fe5b601091828204019190066002029054906101000a900461ffff1661ffff1688600060038110151561097f57fe5b602002015161ffff16115b151561099557600080fd5b6109c9565b60016003818180549050019150816109b29190611196565b506109bd8389610d79565b15156109c857600080fd5b5b6001600380548060010182816109df91906111c8565b916000526020600020906003020160006060604051908101604052808d81526020018a73ffffffffffffffffffffffffffffffffffffffff1681526020018b8152509091909150600082015181600001906003610a3d9291906111fa565b5060208201518160010160006101000a81548173ffffffffffffffffffffffffffffffffffffffff021916908373ffffffffffffffffffffffffffffffffffffffff1602179055506040820151816002019080519060200190610aa1929190611297565b5050500391508160046000610ab58b611073565b600019166000191681526020019081526020016000208190555081600560008773ffffffffffffffffffffffffffffffffffffffff1673ffffffffffffffffffffffffffffffffffffffff168152602001908152602001600020819055507e3aea8189d1a0aa3ebdb05219cd4c2a663166706e949e9d6e8aa63718ca43fd82896040518083815260200182600360200280838360005b83811015610b66578082015181840152602081019050610b4b565b505050509050019250505060405180910390a15050505050505050565b610b8b611156565b6000610b95611182565b60008085111515610ba557600080fd5b600385815481101515610bb457fe5b90600052602060002090600302019050806000018160010160009054906101000a900473ffffffffffffffffffffffffffffffffffffffff168260020182600380602002604051908101604052809291908260038015610c51576020028201916000905b82829054906101000a900461ffff1661ffff1681526020019060020190602082600101049283019260010382029150808411610c185790505b50505050509250808054600181600116156101000203166002900480601f016020809104026020016040519081016040528092919081815260200182805460018160011615610100020316600290048015610ced5780601f10610cc257610100808354040283529160200191610ced565b820191906000526020600020905b815481529060010190602001808311610cd057829003601f168201915b50505050509050935093509350509193909250565b60015481565b6000600254905090565b610d1a611156565b6000610d24611182565b610d6c600560008673ffffffffffffffffffffffffffffffffffffffff1673ffffffffffffffffffffffffffffffffffffffff16815260200190815260200160002054610b83565b9250925092509193909250565b60008060008090505b6003811015610e7a578115610dbf5760008482600381101515610da157fe5b602002015161ffff16141515610dba5760009250610e7e565b610e6d565b8481600381101515610dcd57fe5b602002015161ffff168482600381101515610de457fe5b602002015161ffff16141515610e6c578381600381101515610e0257fe5b602002015161ffff168582600381101515610e1957fe5b602002015161ffff161180610e59575060018582600381101515610e3957fe5b60200201518583600381101515610e4c57fe5b60200201510361ffff1614155b15610e675760009250610e7e565b600191505b5b8080600101915050610d82565b8192505b505092915050565b6001800281565b6000806000809054906101000a900473ffffffffffffffffffffffffffffffffffffffff1673ffffffffffffffffffffffffffffffffffffffff161480610ff357506000809054906101000a900473ffffffffffffffffffffffffffffffffffffffff1673ffffffffffffffffffffffffffffffffffffffff16636d6712d88430856000604051602001526040518463ffffffff167c0100000000000000000000000000000000000000000000000000000000028152600401808473ffffffffffffffffffffffffffffffffffffffff1673ffffffffffffffffffffffffffffffffffffffff1681526020018373ffffffffffffffffffffffffffffffffffffffff1673ffffffffffffffffffffffffffffffffffffffff16815260200182600019166000191681526020019350505050602060405180830381600087803b1515610fd757600080fd5b6102c65a03f11515610fe857600080fd5b505050604051805190505b905092915050565b611003611156565b600061100d611182565b61101e600160038054905003610b83565b925092509250909192565b600080600380549050905060008111611043576000611048565b600181035b91505090565b6000809054906101000a900473ffffffffffffffffffffffffffffffffffffffff1681565b600081600060038110151561108457fe5b602002015182600160038110151561109857fe5b60200201518360026003811015156110ac57fe5b6020020151604051808461ffff1661ffff167e010000000000000000000000000000000000000000000000000000000000000281526002018361ffff1661ffff167e010000000000000000000000000000000000000000000000000000000000000281526002018261ffff1661ffff167e01000000000000000000000000000000000000000000000000000000000000028152600201935050505060405180910390209050919050565b6060604051908101604052806003905b600061ffff168152602001906001900390816111665790505090565b602060405190810160405280600081525090565b8154818355818115116111c3576003028160030283600052602060002091820191016111c29190611317565b5b505050565b8154818355818115116111f5576003028160030283600052602060002091820191016111f49190611317565b5b505050565b826003600f016010900481019282156112865791602002820160005b8382111561125657835183826101000a81548161ffff021916908361ffff1602179055509260200192600201602081600101049283019260010302611216565b80156112845782816101000a81549061ffff0219169055600201602081600101049283019260010302611256565b505b509050611293919061137d565b5090565b828054600181600116156101000203166002900490600052602060002090601f016020900481019282601f106112d857805160ff1916838001178555611306565b82800160010185558215611306579182015b828111156113055782518255916020019190600101906112ea565b5b50905061131391906113ae565b5090565b61137a91905b80821115611376576000808201600061133691906113d3565b6001820160006101000a81549073ffffffffffffffffffffffffffffffffffffffff021916905560028201600061136d91906113da565b5060030161131d565b5090565b90565b6113ab91905b808211156113a757600081816101000a81549061ffff021916905550600101611383565b5090565b90565b6113d091905b808211156113cc5760008160009055506001016113b4565b5090565b90565b5060009055565b50805460018160011615610100020316600290046000825580601f10611400575061141f565b601f01602090049060005260206000209081019061141e91906113ae565b5b505600a165627a7a7230582000e1e8c224698b06e02cf7f67e5b12d4e60a603114930ae670307e775bfe99ab0029",
  "source": "pragma solidity ^0.4.15;\n\nimport \"../apps/AragonApp.sol\";\n\n\ncontract Repo is AragonApp {\n    struct Version {\n        uint16[3] semanticVersion;\n        address contractAddress;\n        bytes contentURI;\n    }\n\n    Version[] versions;\n    mapping (bytes32 => uint256) versionIdForSemantic;\n    mapping (address => uint256) latestVersionIdForContract;\n\n    bytes32 constant public CREATE_VERSION_ROLE = bytes32(1);\n\n    event NewVersion(uint256 versionId, uint16[3] semanticVersion);\n\n    /**\n    * @notice Create new version for repo\n    * @param _newSemanticVersion Semantic version for new repo version\n    * @param _contractAddress address for smart contract logic for version (if set to 0, it uses last versions' contractAddress)\n    * @param _contentURI External URI for fetching new version's content\n    */\n    function newVersion(\n        uint16[3] _newSemanticVersion,\n        address _contractAddress,\n        bytes _contentURI\n    ) auth(CREATE_VERSION_ROLE) public\n    {\n        address contractAddress = _contractAddress;\n        if (versions.length > 0) {\n            Version storage lastVersion = versions[versions.length - 1];\n            require(isValidBump(lastVersion.semanticVersion, _newSemanticVersion));\n            if (contractAddress == 0) {\n                contractAddress = lastVersion.contractAddress;\n            }\n            // Only allows smart contract change on major version bumps\n            require(lastVersion.contractAddress == contractAddress || _newSemanticVersion[0] > lastVersion.semanticVersion[0]);\n        } else {\n            versions.length += 1;\n            uint16[3] memory zeroVersion;\n            require(isValidBump(zeroVersion, _newSemanticVersion));\n        }\n\n        uint versionId = versions.push(Version(_newSemanticVersion, contractAddress, _contentURI)) - 1;\n        versionIdForSemantic[semanticVersionHash(_newSemanticVersion)] = versionId;\n        latestVersionIdForContract[contractAddress] = versionId;\n\n        NewVersion(versionId, _newSemanticVersion);\n    }\n\n    function getLatest() public view returns (uint16[3] semanticVersion, address contractAddress, bytes contentURI) {\n        return getByVersionId(versions.length - 1);\n    }\n\n    function getLatestForContractAddress(address _contractAddress) public view returns (uint16[3] semanticVersion, address contractAddress, bytes contentURI) {\n        return getByVersionId(latestVersionIdForContract[_contractAddress]);\n    }\n\n    function getBySemanticVersion(uint16[3] _semanticVersion) public view returns (uint16[3] semanticVersion, address contractAddress, bytes contentURI) {\n        return getByVersionId(versionIdForSemantic[semanticVersionHash(_semanticVersion)]);\n    }\n\n    function getByVersionId(uint _versionId) public view returns (uint16[3] semanticVersion, address contractAddress, bytes contentURI) {\n        require(_versionId > 0);\n        Version storage version = versions[_versionId];\n        return (version.semanticVersion, version.contractAddress, version.contentURI);\n    }\n\n    function getVersionsCount() public view returns (uint256) {\n        uint256 len = versions.length;\n        return len > 0 ? len - 1 : 0;\n    }\n\n    function isValidBump(uint16[3] _oldVersion, uint16[3] _newVersion) public view returns (bool) {\n        bool hasBumped;\n        uint i = 0;\n        while (i < 3) {\n            if (hasBumped) {\n                if (_newVersion[i] != 0) {\n                    return false;\n                }\n            } else if (_newVersion[i] != _oldVersion[i]) {\n                if (_oldVersion[i] > _newVersion[i] || _newVersion[i] - _oldVersion[i] != 1) {\n                    return false;\n                }\n                hasBumped = true;\n            }\n            i++;\n        }\n        return hasBumped;\n    }\n\n    function semanticVersionHash(uint16[3] version) internal pure returns (bytes32) {\n        return keccak256(version[0], version[1], version[2]);\n    }\n}\n",
  "sourcePath": "/Users/onbjerg/Workspace/aragon/aragonos/contracts/apm/Repo.sol",
  "compiler": {
    "name": "solc",
    "version": "0.4.18+commit.9cf6e910.Emscripten.clang"
  },
  "schemaVersion": "1.0.1",
  "updatedAt": "2018-01-17T16:29:36.951Z"
}